:020000040800F2
:100000000050002019590008F9520008FB5200085E
:10001000FD520008FF5200080153000800000000D4
:100020000000000000000000000000000353000872
:10003000055300080000000007530008095300089A
:1000400061590008615900086159000861590008A8
:100050006159000861590008615900086159000898
:100060006159000861590008615900086159000888
:100070006159000861590008615900086159000878
:100080006159000861590008615900086159000868
:100090000D530008615900086159000861590008B2
:1000A0006159000861590008615900086159000848
:1000B0001953000861590008615900086159000886
:1000C0006159000861590008615900086159000828
:1000D0006159000861590008395300086159000846
:1000E00061590008615900086159000800000000CA
:1000F0000000000000000000000000000000000000
:0C01000000000000000000005FF808F1A3
:1001100010B5054C237833B9044B13B10448AFF341
:1001200000800123237010BDE801002000000000C2
:10013000BC62000808B5034B1BB103490348AFF389
:10014000008008BD00000000EC010020BC62000837
:10015000034613F8012B002AFBD1181A0138704707
:10016000D0400B1CD1409C46203AD3401843524209
:10017000634693401843704781F0004102E000BF9E
:1001800083F0004330B54FEA41044FEA430594EA57
:10019000050F08BF90EA020F1FBF54EA000C55EA92
:1001A000020C7FEA645C7FEA655C00F0E2804FEA63
:1001B0005454D4EB5555B8BF6D420CDD2C4480EA45
:1001C000020281EA030382EA000083EA010180EA75
:1001D000020281EA0303362D88BF30BD11F0004FC3
:1001E0004FEA01314FF4801C4CEA113102D04042F9
:1001F00061EB410113F0004F4FEA03334CEA133334
:1002000002D0524263EB430394EA050F00F0A7804B
:10021000A4F10104D5F1200E0DDB02FA0EFC22FA46
:1002200005F2801841F1000103FA0EF2801843FA3A
:1002300005F359410EE0A5F120050EF1200E012A2B
:1002400003FA0EFC28BF4CF0020C43FA05F3C01869
:1002500051EBE37101F0004507D54FF0000EDCF1E2
:10026000000C7EEB00006EEB0101B1F5801F1BD38B
:10027000B1F5001F0CD349085FEA30004FEA3C0C8F
:1002800004F101044FEA445212F5800F80F09A8085
:10029000BCF1004F08BF5FEA500C50F1000041EB89
:1002A000045141EA050130BD5FEA4C0C404141EB8D
:1002B000010111F4801FA4F10104E9D191F0000FB4
:1002C00004BF01460020B1FA81F308BF2033A3F137
:1002D0000B03B3F120020CDA0C3208DD02F1140C2E
:1002E000C2F10C0201FA0CF021FA02F10CE002F169
:1002F0001402D8BFC2F1200C01FA02F120FA0CFC62
:10030000DCBF41EA0C019040E41AA2BF01EB0451AA
:10031000294330BD6FEA04041F3C1CDA0C340EDCA8
:1003200004F11404C4F1200220FA04F001FA02F3EB
:1003300040EA030021FA04F345EA030130BDC4F1A9
:100340000C04C4F1200220FA02F001FA04F340EA9E
:100350000300294630BD21FA04F0294630BD94F04F
:10036000000F83F4801306BF81F480110134013D36
:100370004EE77FEA645C18BF7FEA655C29D094EAA7
:10038000050F08BF90EA020F05D054EA000C04BF25
:100390001946104630BD91EA030F1EBF0021002010
:1003A00030BD5FEA545C05D14000494128BF41F0AF
:1003B000004130BD14F580043CBF01F5801130BD13
:1003C00001F0004545F0FE4141F470014FF000009E
:1003D00030BD7FEA645C1ABF194610467FEA655C4F
:1003E0001CBF0B46024650EA013406BF52EA0335F1
:1003F00091EA030F41F4002130BD00BF90F0000FDF
:1004000004BF0021704730B54FF4806404F132041A
:100410004FF000054FF0000150E700BF90F0000FD3
:1004200004BF0021704730B54FF4806404F13204FA
:1004300010F0004548BF40424FF000013EE700BFCA
:1004400042004FEAE2014FEA31014FEA02701FBF5A
:1004500012F07F4393F07F4F81F06051704792F02C
:10046000000F14BF93F07F4F704730B54FF46074A6
:1004700001F0004521F0004120E700BF50EA0102F1
:1004800008BF704730B54FF000050AE050EA01029E
:1004900008BF704730B511F0004502D5404261EB0E
:1004A00041014FF4806404F132045FEA915C3FF44F
:1004B000DCAE4FF003025FEADC0C18BF03325FEAE8
:1004C000DC0C18BF033202EBDC02C2F1200300FA9D
:1004D00003FC20FA02F001FA03FE40EA0E0021FAC2
:1004E00002F11444C1E600BF4FF0FF3C06E000BF3C
:1004F0004FF0010C02E000BF4FF0010C4DF804CDAD
:100500004FEA410C7FEA6C5C4FEA430C18BF7FEA6C
:100510006C5C1BD001B050EA410C0CBF52EA430C9A
:1005200091EA030F02BF90EA020F0020704710F11A
:10053000000F91EA030F58BF994208BF90422CBFA9
:10054000D8176FEAE37040F0010070474FEA410CA2
:100550007FEA6C5C02D150EA013C07D14FEA430CC0
:100560007FEA6C5CD6D152EA033CD3D05DF8040B31
:10057000704700BF8446104662468C461946634663
:1005800000E000BF01B5FFF7B7FF002848BF10F13A
:10059000000F01BD4DF808EDFFF7F4FF0CBF01207F
:1005A00000205DF808FB00BF4DF808EDFFF7EAFFFB
:1005B00034BF012000205DF808FB00BF4DF808EDB6
:1005C000FFF7E0FF94BF012000205DF808FB00BFAB
:1005D0004DF808EDFFF7CEFF94BF012000205DF835
:1005E00008FB00BF4DF808EDFFF7C4FF34BF012042
:1005F00000205DF808FB00BF80F0004002E000BF73
:1006000081F0004142001FBF5FEA410392EA030FFD
:100610007FEA226C7FEA236C6AD04FEA1262D2EB47
:100620001363C1BFD218414048404140B8BF5B424C
:10063000192B88BF704710F0004F40F4000020F0E5
:100640007F4018BF404211F0004F41F4000121F0FB
:100650007F4118BF494292EA030F3FD0A2F1010245
:1006600041FA03FC10EB0C00C3F1200301FA03F183
:1006700000F0004302D5494260EB4000B0F5000FA6
:1006800013D3B0F1807F06D340084FEA310102F165
:100690000102FE2A51D2B1F1004F40EBC25008BF17
:1006A00020F0010040EA03007047490040EB0000E1
:1006B00010F4000FA2F10102EDD1B0FA80FCACF110
:1006C000080CB2EB0C0200FA0CF0AABF00EBC2500F
:1006D00052421843BCBFD0401843704792F0000FFD
:1006E00081F4000106BF80F400000132013BB5E750
:1006F0004FEA41037FEA226C18BF7FEA236C21D0C6
:1007000092EA030F04D092F0000F08BF084670472A
:1007100090EA010F1CBF0020704712F07F4F04D1F8
:10072000400028BF40F00040704712F100723CBF0B
:1007300000F50000704700F0004343F0FE4040F435
:10074000000070477FEA226216BF08467FEA2363F3
:100750000146420206BF5FEA412390EA010F40F4DE
:10076000800070474FF0000304E000BF10F000432A
:1007700048BF40425FEA000C08BF704743F0964311
:1007800001464FF000001CE050EA010208BF70472C
:100790004FF000030AE000BF50EA010208BF7047B3
:1007A00011F0004302D5404261EB41015FEA010CC8
:1007B00002BF84460146002043F0B64308BFA3F1C0
:1007C0008053A3F50003BCFA8CF2083AA3EBC253A2
:1007D00010DB01FA02FC634400FA02FCC2F12002C1
:1007E000BCF1004F20FA02F243EB020008BF20F0F8
:1007F0000100704702F1200201FA02FCC2F120025E
:1008000050EA4C0021FA02F243EB020008BF20EA52
:10081000DC70704742000ED2B2F1FE4F0BD34FF0A6
:100820009E03B3EB126209D44FEA002343F0004366
:1008300023FA02F070474FF00000704712F1610F89
:1008400001D1420202D14FF0FF3070474FF000005B
:10085000704700BF38B50E4B054618784FF47A73D1
:10086000B3FBF0F30B4A1068B0FBF3F000F0A0F814
:10087000044658B90F2D09D8024629464FF0FF30DB
:1008800000F054F8044B20461D6038BD012038BDEF
:10089000000000201C01002004000020074A08B5C9
:1008A0001368032043F01003136000F02DF80020BC
:1008B000FFF7D0FF04F07AFC002008BD00200240C2
:1008C000034A044B11681B780B441360704700BF48
:1008D0003404002000000020014B1868704700BF5E
:1008E0003404002038B50446FFF7F6FF0546631CC4
:1008F0001EBF044B1B78E418FFF7EEFF401B844239
:10090000FAD838BD00000020074A0002D36800F47E
:10091000E06023F4E0631B041B0C43F0BF6343F46B
:1009200000330343D360704700ED00E0174B30B550
:10093000DC68C4F30224C4F10703251D042B28BF7F
:100940000423062D4FF0010598BF002405FA03F398
:1009500003F1FF3388BF033C1940A14005FA04F4BA
:10096000013C2240002842EA01024FEA0212A9BFDC
:1009700000F16040064BD2B200F56140BBBF00F011
:100980000F00D2B280F800231A5430BD00ED00E011
:1009900014ED00E0002808DB0123420900F01F00ED
:1009A00003FA00F0014B43F82200704700E100E039
:1009B0000138B0F1807F0AD2F021064B064A586018
:1009C00082F823100020072298601A6070470120E7
:1009D000704700BF10E000E000ED00E090F821302B
:1009E000022B06D004238363002380F820300120EB
:1009F00070470368C16B1A6822F00E021A601A6809
:100A000022F001021A600122036C02FA03F34B6028
:100A1000002380F8212080F820301846704700001D
:100A200090F8213010B5022B03D0042383630120FA
:100A300010BD03681A6822F00E021A601A6822F0CC
:100A400001021A60184A93421FD0143293421ED0FA
:100A5000143293421DD0143293421DD0143293426B
:100A60001DD0143293420CBF4FF480134FF08073AB
:100A70000E4A00245360012380F82130436B80F834
:100A800020407BB19847204610BD0123F0E710239A
:100A9000EEE74FF48073EBE74FF48053E8E74FF451
:100AA0008033E5E7184610BD080002400000024010
:100AB000114AD36813F0100305D01049CB6943F0F5
:100AC0000203CB611023D268500706D50B4943F0CF
:100AD0000403CA6942F00102CA61074AD169C90721
:100AE00008D50648C16941F00401C161D16921F00E
:100AF0000101D161D360704700200240380400201A
:100B0000064B186910F0800007D0054A5A6002F1C0
:100B100088325A601869C0F3C01070470020024044
:100B200023016745034A0020136943F080031361E2
:100B3000704700BF00200240F8B50646FFF7CCFE24
:100B4000114C07462546E368D80712D4E368990696
:100B500044BF2023E360EB68DA0606D4EB69DB07C9
:100B600003D4E86810F0040002D0FFF7A1FF0120D1
:100B7000F8BD731CE7D00EB90320F8BDFFF7ACFE3B
:100B8000C01B8642DFD2F7E7002002402DE9F84F74
:100B90001F4C9946237E0546012B0F46904633D0C5
:100BA00001234CF250302376FFF7C6FF40BB012DE6
:100BB00003D0022D0CBF022504250026B246DFF823
:100BC00054B0320140464946FFF7CAFAC4F81CA0A7
:100BD000DBF8103080B243F00103CBF8103027F877
:100BE00016004CF25030FFF7A7FFDBF8103023F06F
:100BF0000103CBF8103018B90136F3B29D42E0D8AA
:100C000000232376BDE8F88F0220BDE8F88F00BFEF
:100C100038040020002002400022064BDA61064B17
:100C20001A6942F004021A611A6942F040021A611C
:100C3000704700BF38040020002002400022064B0D
:100C4000DA61064B1A6942F002021A6158611A69A8
:100C500042F040021A617047380400200020024030
:100C60002DE9F041234D07462B7E8846012B3DD0D0
:100C7000012403682C76022B4CF2503013D1FFF77D
:100C80005BFF20B1012000232B76BDE8F081FFF748
:100C9000C3FF4CF25030FFF74FFF174A136923F0A0
:100CA00004031361EFE7FFF747FF0028EAD14FF095
:100CB000FF33C8F800302046BE680F4CFA68BB68A6
:100CC00003EB82239E42DED23046FFF7B7FF4CF2A1
:100CD0005030FFF731FF236923F00203236110B185
:100CE000C8F80060CFE706F58066E7E70220BDE8B8
:100CF000F08100BF38040020002002402DE9F74FAA
:100D000000242646664BDFF8A8E1DFF8A8C10A6890
:100D100032FA06F502D103B0BDE8F08F4FF00108BA
:100D200008FA06F802EA080290457FD14D68122DB4
:100D300000F0AA8000F28380022D00F0A28077D814
:100D4000002D00F08980012D00F099804FF00F09EF
:100D5000FF2A93BF824606F18045083DD0F800B0D7
:100D600092BFB500D0F804B0AD0009FA05F82BEA3F
:100D7000080804FA05F588BF00F1040A48EA0505E9
:100D8000CAF80050D1F804A01AF0805F4ED0454D4B
:100D9000444FAD6926F0030845F00105BD61BD690A
:100DA00008F1804805F00105019508F5803806F046
:100DB000030B019D4FEA8B0BD8F8085009FA0BF989
:100DC00025EA0909384DA84263D005F58065A84297
:100DD00061D005F58065A8425FD005F58065A84221
:100DE0000CBF0325042505FA0BF545EA0905C8F8EB
:100DF00008501D681AF4803F14BF154395431D60C9
:100E00005D681AF4003F14BF154395435D609D680B
:100E10001AF4801F14BF154395439D60DD681AF4D2
:100E2000001F14BF2A4325EA0202DA6001366EE78A
:100E3000032D22D0112D89D1CC68043486E71B4FB5
:100E4000BD4209D012D8DFF870904D4504D009F5A5
:100E500080394D457FF47AAF8C68C4B1012C0CBF4A
:100E6000C0F81080C0F8148008246FE77545F3D0EF
:100E70006545F1D0DFF84490EBE7002466E7CC68E5
:100E800064E7CC68083461E7CC680C345EE704247E
:100E90005CE70025A7E70125A5E70225A3E700BF3A
:100EA0000004014000100240000801400000211031
:100EB000000031100000321000001110000022105C
:100EC0000AB1016170470904FBE7F0B5044687B039
:100ED00010B390F8A93203F0FF021BB980F8A822E2
:100EE00004F074FB254603236E4655F8100B84F876
:100EF000A93201F07BFE0FCD0FC62B68254633606B
:100F0000271D97E80E0055F8100B01F05FFE06460E
:100F100020B1022384F8A93201254BE00146206864
:100F200001F06EFE30464FF0010C28260146D4F841
:100F300004E0C2B2964500F1010018D8002328262B
:100F40001946D8B2864503F101031DD86E460FCD70
:100F50000FC62B68336097E80E00206801F052FE40
:100F600001230546F8B1022284F8A922D4E706FB42
:100F7000024383F829C083F82820DA8683F82B10EF
:100F80009963D9631964D4E706FB004282F86911BA
:100F900082F8680182F86B11C2F87811C2F87C11EE
:100FA000C2F88011CDE784F8240084F8A9322068C3
:100FB00002F0E8F8284607B0F0BD38B590F8A8323E
:100FC0000446012B10D0012580F8A852006801F0DA
:100FD00004FE2946204604F026FC206802F0D0F8E2
:100FE000002084F8A80238BD022038BD90F8A8225D
:100FF00010B5012A04460BD0012280F8A82284F8FB
:101000002410006802F0B6F8002084F8A80210BD91
:10101000022010BD2DE9F04F044685B0006802F0B3
:10102000B3F8000400F1E084206802F0ADF8410557
:101030000FD522682046B2F8443023F480631B04A5
:101040001B0CA2F8443004F0FAFA00212046FFF706
:10105000CDFF206802F098F8470408D52268B2F85E
:10106000443023F480431B041B0CA2F84430206856
:1010700002F08AF8860408D52268B2F8443023F4D6
:1010800000531B041B0CA2F84430206802F07CF8CB
:10109000C5041CD522682046B2F8403023F0040372
:1010A0001B041B0CA2F84030B2F8403023F00803B8
:1010B0001B041B0CA2F8403004F0E4FA2268B2F8DA
:1010C000443023F480531B041B0CA2F844302068E6
:1010D00002F05AF8000544D50022236833F82210A4
:1010E0002DF812100132082AF8D1B3F8402092B23C
:1010F00042F00102A3F84020B3F8402022F00102A0
:101100001204120CA3F84020B3F844205105FBD57B
:10111000B3F8442022F480621204120CA3F8442095
:1011200000223DF8121023F822100132082AF8D1CB
:10113000B3F84020204692B242F00802A3F84020C3
:10114000B3F8442022F400621204120CA3F84420E5
:10115000B3F8402092B242F00402A3F8402004F019
:1011600081FA206802F010F882050BD5226820462B
:10117000B2F8443023F400731B041B0CA2F8443073
:1011800004F059FA206801F0FFFFC30508D5226872
:10119000B2F8443023F480731B041B0CA2F84430D3
:1011A00005B0BDE8F08FB0F8441089B211F00F051A
:1011B00040F0BA80038811F010019BB22CD103EAF1
:1011C000080343F400430380B0F8503094F828201B
:1011D0009BB203EBC20300EB4300B0F80434E26BB4
:1011E000C3F3090363641344E363204604F01BFA6A
:1011F00094F8243053B1226C42B994F82430216819
:1012000043F08003A1F84C3084F824202068B0F823
:1012100044301B04C7D407E713F4006521D0B0F8AD
:10122000503094F868219BB203EBC20300EB4303F8
:10123000B3F80C34B4F86E21C3F30903C4F8843155
:1012400004F52C7102F04EFB22682046138823F02F
:1012500070031B051B0D43F08003138004F0D4F9C9
:10126000D4E71A04D2D5038823F070031B051B0DA5
:1012700043F080030380B0F8503094F868219BB2AB
:1012800003EBC20300EB4303B3F80C34C3F30903CD
:10129000C4F884318BB1D4F87C1171B1B4F86E21EB
:1012A00002F020FBD4F87C31D4F884212946134481
:1012B000C4F87C31204604F0ADF921680B881B0589
:1012C000A4D4B1F85030D4F878519BB201F20C405C
:1012D000CDB9C25A22F4F8421204120CC252C25AB8
:1012E00092B242F40042C2520B8823F4804323F0AE
:1012F00070031B041B0C83F4405343F4004343F07E
:1013000080030B8082E73E2D06D86A08EE0748BFAF
:101310000132920292B2E6E76A09ED0608BF02F1D5
:10132000FF3247EA8222F5E730F82560B6B233048F
:1013300040F10E81282130F8253001FB054123F0D2
:1013400070031B051B0D43F0800320F8253091F836
:101350007431CBB9B0F8503091F868219BB20633A4
:1013600003EBC20300EB4303B3F800A4CAF3090A7A
:10137000BAF1000F00F0D0805346B1F86E21D1F8D9
:101380007C1102F0AFFAC7E091F86B31022B40F00C
:101390009D80B0F8503016F4804C9BB291F86821D3
:1013A00006F0400E47D0023303EBC20300EB4303C9
:1013B000B3F800A4D1F88031CAF3090A534534BF09
:1013C0000023A3EB0A03C1F88031282303FB054364
:1013D000D3F880317BB930F8223023F4804323F0F6
:1013E00070031B041B0C83F4005343F4004343F0CD
:1013F000800320F82230BEF1000F12D0282303FB17
:10140000054393F8682130F8223023F4E04323F0B9
:1014100070031B041B0C43F4004343F0C00320F88B
:101420002230BAF1000F77D0282101FB0541534645
:10143000B1F87021A3E7063303EBC20300EB4303CB
:10144000B3F800A4D1F88031CAF3090A534524BF88
:10145000A3EB0A03C1F880314FF0280303FB0543D7
:1014600038BFC1F880C1D3F880317BB930F8223061
:1014700023F4804323F070031B041B0C83F40053FC
:1014800043F4004343F0800320F82230BEF1000F04
:1014900012D1282303FB054393F8682130F822304A
:1014A00023F4E04323F070031B041B0C43F40043BC
:1014B00043F0C00320F82230BAF1000F2CD02821CD
:1014C00001FB05415346B1F8722158E791F86821B4
:1014D00030F8223023F4E04323F070031B041B0C8C
:1014E00043F4004343F0C00320F8223091F8683100
:1014F00030F82320DB0012F4804FB0F8502092B275
:1015000066D00232134400EB4303B3F800A4CAF3DD
:10151000090ABAF1000F8AD1282169436318D3F868
:1015200084215244C3F88421D3F87C215244C3F867
:101530007C21D3F880211AB1D3F878319A4553D25F
:10154000282303FB0543204693F8681104F062F852
:1015500030067FF55BAE4FF0280A20680AFB054A8B
:1015600030F825309BB203EA080343F4004320F827
:1015700025309AF82B209AF82830032A04D01AB183
:10158000022A44D1F10542D42821B0F8502001FBB1
:10159000054E92B2023202EBC30300EB4303B3F8F1
:1015A0000034DEF84060C3F309039E4292BF00227C
:1015B000F61ACEF8406001FB054698BFCEF84020F1
:1015C000326CC2B99AF82810204604F02CF81DE6B7
:1015D0000632134400EB4303B3F800A4CAF3090A2C
:1015E000BAF1000F98D06DE701F5B471214420687D
:1015F00001F0E0FDACE7F26B05FB01111A44F26368
:10160000726C21441344736401F0D4FDFEE528227A
:10161000B0F8501016F0400C89B206F4804602FB78
:10162000054200F0F280023101EBC30100EB410101
:10163000B1F800E4D2F840C0CEF3090EF44594BFEF
:101640000021ACEB0E011164282202FB0542D2F806
:1016500040C0BCF1000F5ED19AF82920002A43D186
:10166000B0F850101B018AB200F204411144CA5A6A
:1016700022F4F8421204120CCA52CA5A92B242F42C
:101680000042CA529AF829209AF82830002A37D105
:10169000B0F8502000F20C4092B21B0110441A5ACC
:1016A00022F4F8421204120C1A521A5A92B242F45C
:1016B00000421A529AF82810204603F0B4FF002E78
:1016C00000F0F3809AF82810226832F8213023F4D1
:1016D000E04323F070031B041B0C43F4404343F02E
:1016E000800322F82130E0E0012ACBD1B0F850206D
:1016F0001B0191B200F204420A4422F803C0C1E780
:10170000012AD7D1B0F8502000F20C4092B2104418
:101710001B010022CDE76EB130F8232022F4E04215
:1017200022F070021204120C42F4404242F0800295
:1017300020F82320282303FB054393F84C20012A9B
:1017400040F0B3805A6CD96B72445A649E6C9A6BA9
:1017500071449642D96327D3B61A9E649AF82960D9
:1017600093B2002E43D1B0F850609AF828E0B6B298
:1017700000F2044C4FEA0E1E664402BB3EF80620FF
:1017800022F4F8421204120C2EF806203EF806202D
:1017900092B242F400422EF80620282202FB0545B0
:1017A0002A8E01F0F7FC80E01EB983F84C60724687
:1017B000D4E7002283F84C209A643246CEE73E2AD2
:1017C0000CD84FEA520CD20748BF0CF1010C4FEA7B
:1017D0008C2C1FFA8CFC2EF806C0DEE74FEA521C58
:1017E000D20608BF0CF1FF3C47EA8C2CF1E7012E32
:1017F000D3D1B0F850209AF828601FFA82FE00F288
:10180000044236017244B352C7E7063101EBC3010B
:1018100000EB4101B1F800E4D2F840B0CEF3090E7C
:10182000F34526BFABEB0E011164C2F840C028227D
:1018300002FB0542D2F840C0BCF1000F5ED19AF81D
:101840002920002A42D1B0F850101B018AB200F2C0
:1018500004411144CA5A22F4F8421204120CCA522A
:10186000CA5A92B242F40042CA529AF829209AF80F
:101870002830002A36D1B0F8502000F20C4092B245
:1018800010441A01835A23F4F8431B041B0C83529F
:10189000835A9BB243F4004383529AF8281020469F
:1018A00003F0C1FE002E3FF40DAF9AF82810226815
:1018B00032F821309BB203EA090383F0300343F48A
:1018C000004343F0800322F821309FE4012ACCD169
:1018D000B0F850201B0191B200F204420A4422F8F1
:1018E00003C0C2E7012AD8D1B0F8502000F20C4062
:1018F00092B2104400221B011A52CEE76EB930F8A2
:10190000232022F4E04222F070021204120C42F46E
:10191000404242F0800220F82320282303FB0543A5
:1019200093F84C20012AC0D15A6CD96B72445A6486
:101930009E6C9A6B71449642D96325D3B61A9E6405
:101940009AF8296093B2002E41D1B0F850E01FFA06
:101950008EF600F20C4EB6449AF828603601F2B9C1
:101960003EF8062022F4F8421204120C2EF806204B
:101970003EF8062092B242F400422EF806202822B9
:1019800002FB05456A8E0CE71EB983F84C6072466F
:10199000D6E700229A6483F84C203246D0E73E2AEC
:1019A0000CD84FEA520CD20748BF0CF1010C4FEA99
:1019B0008C2C1FFA8CFC2EF806C0E0E74FEA521C74
:1019C000D20608BF0CF1FF3C47EA8C2CF1E7012E50
:1019D000D5D1B0F85060B2B200F20C4616449AF875
:1019E00028201201B352CAE7DFF80C80014FDFF85C
:1019F0000C900BE40080FFFF0F8FFFFFBF8FFFFFF6
:101A000011F0800F70B501F0070405464FF0280172
:101A10001DD004FB01110144012048700A614A787D
:101A2000E4B20C70CB7002B1CC81022B04BF002356
:101A30000B7195F8A832012B13D00123286885F883
:101A4000A83201F0F3F8002085F8A80270BD002646
:101A500001FB04F000F5B4712844294480F8696161
:101A6000DCE7022070BD11F0800F10B501F0070215
:101A700004464FF0280313D002FB0333C11801239F
:101A80004B700A7094F8A832012B12D00123206801
:101A900084F8A83201F024FA002084F8A80210BDCE
:101AA000534303F5B47101440344002083F86901F2
:101AB000E7E7022010BD70B52824002601F00701D9
:101AC0004C43051985F8681104F5B4710144C5F853
:101AD0007C21C5F88031C5F8846185F869610068AA
:101AE00001F068FB304670BD282301F0070103FBBD
:101AF0000101D1F88401704770B5282501F0070174
:101B000005FB01040026E263012201FB055584F870
:101B100028102364411984F84C20A364666484F877
:101B20002920006801F046FB304670BD38B5436897
:101B300001F007059D42044628D811F0800F4FF0B0
:101B400028031AD005FB0333C11801234B7001236E
:101B50000D708B7094F8A8229A4219D084F8A8329C
:101B6000206801F09CFA25B904F52C71206801F079
:101B70000FFB002084F8A80238BD00224B4303F578
:101B8000B4710344014483F86921E0E7012038BDC2
:101B9000022038BD38B5436801F00F029A4204466E
:101BA00025D811F0800F01F007024FF0280315D05F
:101BB00002FB0333C11801234B7000250A708D709E
:101BC00094F8A832012B14D00123206884F8A8329D
:101BD00001F085FA84F8A852284638BD534303F52E
:101BE000B47101440344002083F86901E5E7012052
:101BF00038BD022038BD10B5282411F0800F1BBF5E
:101C000001F0070101FB044104FB0100401808BF7B
:101C100000F5B4701AB90273C380002010BD012210
:101C200003811B0C02734381F7E700002DE9F341A8
:101C3000054608B901203CE00368DB0710D42B6897
:101C40009F075DD42B68190700F194802B685A0711
:101C500000F1BE80E869002840F02C81002028E0D7
:101C60008F4C636803F00C03042B07D0636803F008
:101C70000C03082B09D16368DE0306D523689C0397
:101C8000DDD56B68002BDAD1D4E76B68B3F5803F04
:101C900012D1236843F480332360FEF71DFE06460D
:101CA00023689803CBD4FEF717FE801B6428F7D96E
:101CB000032002B0BDE8F0819BB9236823F4803390
:101CC0002360236823F480232360FEF705FE064685
:101CD00023689903B3D5FEF7FFFD801B6428F7D96D
:101CE000E6E7B3F5A02F236803D143F480232360F4
:101CF000CFE723F480332360236823F48023CBE7EA
:101D0000674C636813F00C0F07D0636803F00C0393
:101D1000082B10D16368DA030DD423689B0702D522
:101D20002B69012B86D123686A6923F0F80343EA03
:101D3000C203236086E72A695A4B6AB101221A60FE
:101D4000FEF7CAFD064623689F07ECD4FEF7C4FDE4
:101D5000801B0228F7D9ABE71A60FEF7BDFD0646E7
:101D6000236898077FF56EAFFEF7B6FD801B02284B
:101D7000F6D99DE7AA694A4C4B4BDAB101221A60A9
:101D8000FEF7AAFD0646636A9B070DD54FF4FA528B
:101D9000464B1B68B3FBF2F3019300BF019B5A1E35
:101DA0000192002BF9D151E7FEF796FD801B022826
:101DB000E9D97DE71A60FEF78FFD0646636A9F0743
:101DC0007FF544AFFEF788FD801B0228F6D96FE748
:101DD000334CE369D80024D40127E36943F08053EE
:101DE000E361E36903F080530093009B304E336856
:101DF000D90518D5EB68012B26D1236A43F00103DE
:101E00002362FEF769FD41F288368046236A9B070C
:101E10003FD5002F3FF41EAFE36923F08053E36109
:101E200018E70027E2E7336843F480733360FEF776
:101E300053FD80463368DA05DCD4FEF74DFDA0EB98
:101E400008006428F6D933E7ABB9236A41F2883831
:101E500023F001032362236A23F004032362FEF7C5
:101E60003BFD0646236A9807D3D5FEF735FD801B58
:101E70004045F7D91CE7052B236A03D143F004033F
:101E80002362BAE723F001032362236A23F00403E9
:101E9000B6E7FEF721FDA0EB0800B042B6D907E790
:101EA0000010024000004242800442421C01002017
:101EB000007000402A4B5A681C4602F00C02082AA7
:101EC0003DD00023274E022833602BD1FEF704FDBE
:101ED0000746236899011FD42B6AB3F5803F05D1CB
:101EE0006268A96822F400320A436260696A626823
:101EF0000B4322F474121343636001233360FEF733
:101F0000EBFC054623689A013FF5A8AEFEF7E4FC1A
:101F1000401B0228F6D9CBE6FEF7DEFCC01B0228E8
:101F2000D7D9C5E6FEF7D8FC054623689B017FF5A7
:101F300095AEFEF7D1FC401B0228F6D9B8E6012881
:101F40003FF4B7AE58682B6A00F480329A427FF4AF
:101F500071AE6B6A00F47010C01A18BF0120A8E6B9
:101F6000001002406000424230B5194B87B002AC0D
:101F700003F11005224618685968083303C2AB42C2
:101F80001446F7D101238DF80430022311498DF84E
:101F900005304B6803F00C02082A17D1C3F38342C3
:101FA00006A80244DB0312F8102C0CD54B680A4833
:101FB000C3F34043504306AA134413F8143CB0FB48
:101FC000F3F007B030BD05485043FAE70248F8E7A0
:101FD000D46200080010024000127A0000093D009F
:101FE0002DE9F0410D46044610B90120BDE8F0810D
:101FF000454A136803F007038B4229D321688E07F3
:1020000031D4CA0744D4404A136803F007039D4201
:1020100067D322683D4D12F0040F6ED1130706D529
:102020006B68226923F4605343EAC2036B60FFF7D5
:102030009BFF6B68364AC3F30313D35CD840354B20
:102040001860354B1868FEF705FC0020BDE8F081EC
:10205000136823F007030B431360136803F00703AF
:102060009942C2D1CAE7294B11F0040F1EBF5A682A
:1020700042F4E0625A60080742BF5A6842F4605274
:102080005A605A68A06822F0F00202435A60B8E72A
:1020900062681E4E012A33681BD113F4003FA4D09E
:1020A000736841F2883823F0030313437360FEF72B
:1020B00013FC07467368626803F00C03B3EB820FEE
:1020C000A1D0FEF709FCC01B4045F3D90320BDE8B1
:1020D000F081022A02D113F0007FE0E713F0020F33
:1020E000DDE7136823F007032B431360136803F045
:1020F00007039D427FF479AF8BE76B68E16823F4B7
:10210000E0630B436B6089E700200240001002404F
:102110007B6500081C01002004000020044B054AD8
:102120005B68C3F30223D35C034A1068D84070474E
:10213000001002408B6500081C010020044B054A7A
:102140005B68C3F3C223D35C034A1068D84070476E
:10215000001002408B6500081C01002003682DE977
:10216000F341D907054620D5354CE369DA0032D46E
:102170000127E36943F08053E361E36903F080538F
:102180000193019B2F4E3368DB0526D5236A13F498
:10219000407336D1236A6A6823F440731343236281
:1021A0001FB1E36923F08053E3612868830706D5F4
:1021B000234AA968536823F440430B43536010F04B
:1021C00010001BD01E4AE9685368002023F48003E6
:1021D0000B43536012E00027D4E7336843F4807365
:1021E0003360FEF779FB80463368D805CED4FEF71E
:1021F00073FBA0EB08006428F6D9032002B0BDE809
:10220000F0816A6802F440729342C3D001200E4A02
:10221000236A1060002023F4407110602162D90706
:10222000B8D5FEF759FB41F288380646236A9A076B
:10223000B0D4FEF751FB801B4045F7D9DDE700BF66
:1022400000100240007000404004424290F83D30CF
:10225000012B1CD102230F4A80F83D3003689342C2
:102260000AD0B3F1804F07D0A2F59432934203D045
:1022700002F58062934204D19A6802F00702062AAE
:1022800003D01A6842F001021A6000207047012052
:10229000704700BF002C014090F83D30012B20D149
:1022A000022380F83D300368DA6842F00102DA6008
:1022B0000D4A93420AD0B3F1804F07D0A2F5943271
:1022C000934203D002F58062934204D19A6802F0EF
:1022D0000702062A03D01A6842F001021A600020A1
:1022E00070470120704700BF002C014070477047C5
:1022F000704770477047036810B51A690446910724
:102300000ED5DA6892070BD56FF002021A6101222E
:102310009B6902779B0777D0FFF7EAFF00232377BB
:1023200023681A69500710D5DA6851070DD56FF088
:1023300004021A6102229B69227713F4407F20462F
:1023400068D0FFF7D5FF0023237723681A691207A7
:102350000FD5DA6810070CD56FF008021A61042255
:10236000DB692277990720465AD0FFF7C1FF002387
:10237000237723681A69D20610D5DA68D0060DD5FE
:102380006FF010021A610822DB69227713F4407F94
:1023900020464BD0FFF7ACFF0023237723681A6950
:1023A000D10708D5DA68D20705D56FF001022046BB
:1023B0001A61FFF79BFF23681A69100608D5DA68CF
:1023C000110605D56FF0800220461A6100F06BF906
:1023D00023681A69520608D5DA68500605D56FF0E9
:1023E000400220461A61FFF785FF23681A699106AB
:1023F00022D5DA6892061FD56FF020022046BDE88C
:1024000010401A6100F04EB9FFF771FF2046FFF748
:1024100070FF83E7FFF76BFF2046FFF76AFF92E745
:10242000FFF765FF2046FFF764FFA0E7FFF75FFFB8
:102430002046FFF75EFFAFE710BD00001A4A0368B1
:1024400090420AD0B0F1804F07D0A2F5943290426A
:1024500003D002F58062904215D14A6823F07003E0
:102460001343114A90420AD0B0F1804F07D0A2F531
:102470009432904203D002F58062904203D1CA6840
:1024800023F4407313434A6923F08003134303602A
:102490008B68C3620B688362034B984204BF0B696D
:1024A0000363012343617047002C014010B50446CB
:1024B00030B390F83D3003F0FF021BB980F83C20A8
:1024C00002F096FE0223206884F83D30211DFFF7BC
:1024D000B5FF0123002084F8463084F83E3084F8AC
:1024E0003F3084F8403084F8413084F8423084F83A
:1024F000433084F8443084F8453084F83D3010BDD2
:10250000012010BD10B584680A4324F47F4442EAD8
:1025100003232343836010BD90F83C3070B5012B3A
:1025200004464FF0020019D0012384F83D002068D2
:1025300084F83C30836823F47F4323F0770383607F
:102540000B68402B65D015D8102B0CD007D853B191
:102550000123002084F83D3084F83C0070BD202B1E
:1025600001D0302BF4D1826843F0070322F07002CF
:1025700013431AE0602B34D019D8502BE8D14A68A5
:10258000CE68016A056A21F00A0125F0010505629D
:1025900083690A4323F0F00343EA0613836102626E
:1025A000836823F0700343F057038360D0E7702BF8
:1025B0000CD0B3F5005FCBD1CB684A688968FFF7D0
:1025C000A1FF2268936843F4804308E0CB684A681F
:1025D0008968FFF797FF2268936843F07703936059
:1025E000B6E74D68CE68016A21F010010162826988
:1025F000036A22F4704223F0A00343EA051342EA7F
:10260000063282610362836823F0700343F067033C
:10261000CBE74A68CE68016A056A21F00A0125F015
:102620000105056283690A4323F0F00343EA0613B8
:1026300083610262836823F0700343F04703B4E7C9
:1026400090F83C3030B5012B4FF0020325D0012229
:1026500080F83D3003680D685C6880F83C2024F009
:1026600070042C439A685C600D4CA3420AD0B3F10D
:10267000804F07D0A4F59434A34203D004F58064BE
:10268000A34204D1496822F080020A439A600123E0
:1026900080F83D30002380F83C30184630BD00BF44
:1026A000002C0140704770470368DA6822F490728A
:1026B000DA605A6922F001025A61026B012A02BFF4
:1026C000DA6822F01002DA60202380F83E3000231E
:1026D0000363704738B504460368C1681A6922F479
:1026E00040520A431A6182680069D96802436069EE
:1026F00021F4B05121F00C0102430A43DA605A6917
:10270000A16922F440720A435A610E4A934215D1DC
:10271000FFF714FD19235843636864229B00B0FB44
:10272000F3F0B0FBF2F102FB11031B013233B3FBF8
:10273000F2F3256803EB0113AB6038BDFFF7EEFC45
:10274000E8E700BF00380140F8B504460E461746DA
:102750001D4621680B6836EA030301D10020F8BD4D
:102760006B1CF7D095B923680320DA6822F4D07285
:10277000DA605A6922F001025A61202384F83D3060
:1027800084F83E30002384F83C30F8BDFEF7A4F80E
:10279000C01B8542DDD2E6E710B5044640B390F891
:1027A0003D3003F0FF021BB980F83C2002F03CFDF5
:1027B0002423226884F83D30D368204623F4005354
:1027C000D360FFF787FF236800201A6922F4904244
:1027D0001A615A6922F02A025A61DA6842F40052F8
:1027E000DA602023206484F83D3084F83E3010BD48
:1027F000012010BD10B5044660B390F83D3003F0E1
:10280000FF021BB980F83C2002F00EFD2423226851
:1028100084F83D30D368204623F40053D360FFF79B
:1028200059FF236800201A6922F490421A615A69FC
:1028300022F022025A615A6942F008025A61DA68AB
:1028400042F40052DA602023206484F83D3084F89A
:102850003E3010BD012010BD2DE9F843984690F898
:102860003D300446202B0E4691464CD1002947D0DE
:10287000002A45D090F83C30012B44D0012300259C
:1028800080F83C302123056480F83D30FEF724F8C1
:10289000A3680746B3F5805FA4F82490A4F82690B7
:1028A00003D123690BB935461E46002384F83C301A
:1028B000E38C9BB25BB943463A4640212046FFF782
:1028C00043FF58B9202384F83D30BDE8F8834346E0
:1028D0003A4680212046FFF737FF10B10320BDE8BC
:1028E000F88322684EB935F8023BC3F308035360FE
:1028F000E38C013B9BB2E384DAE716F8013BF6E791
:102900000120BDE8F8830220BDE8F88370477047D6
:10291000704708B50023406AC385C384FFF7F8FFFA
:1029200008BD704707B58168836AB1F5805F0268AA
:1029300035D10169002935D15268C2F3080223F864
:10294000022BC28D8362013A92B2C2851ABB036820
:10295000D96821F02001D960D96821F48071D9604B
:10296000596921F001015961202180F83E10016B65
:10297000012920D10263D96821F01001D9601968BA
:10298000C90605D501921A6801925B680193019B03
:10299000818DFFF7C6FF002003B05DF804FB31B95D
:1029A000016921B952681A70836A0133C9E7526814
:1029B00002F07F02F7E7FFF7AAFFECE7036837B5FD
:1029C0001A68044612F00F0FD9685D690BD195069D
:1029D00063D58D0661D590F83E30222B01D1FFF7EB
:1029E000A1FF03B030BD15F0010502D111F4907FB5
:1029F00053D0D00705D5CB0542BF236C43F001036C
:102A00002364500704D51DB1236C43F002032364F3
:102A1000930704D51DB1236C43F00403236410070E
:102A200006D58B0600D41DB1236C43F00803236444
:102A3000236C002BD5D0900608D58A0606D594F8CD
:102A40003E30222B02D12046FFF76CFF2368204640
:102A50005D69226C130702D415F0400519D0FFF709
:102A600023FE23685A6955060FD55A69A06B22F0D8
:102A700040025A6148B1544B4363FDF7D1FF00282F
:102A8000AFD0A06B436B9847ABE72046FFF740FF02
:102A9000A7E7FFF73DFF2564A3E7206B012857D187
:102AA000D00655D5CD0653D5002101911A68019263
:102AB0005A680192019A5A6912F040022AD0A06B1A
:102AC0000268526892B2002A8BD0A58D954288D9AF
:102AD000E2858269202A15D0DA6822F48072DA60F1
:102AE0005A6922F001025A615A6922F040025A6181
:102AF000202284F83E202163DA6822F01002DA6096
:102B0000FDF76CFFE38DA18DC91A89B22046FFF74E
:102B100008FF66E7E18D88B2E18D89B200293FF4B4
:102B200060AFA18D091A89B200293FF45AAFD86865
:102B300020F49070D860586920F00100586120207E
:102B400084F83E002263DA6822F01002DA60DDE7E2
:102B5000100628D50D0626D594F83D20212A7FF4AD
:102B600040AFA268B2F5805F226A17D12169A9B986
:102B700032F8021BC1F3080159602262E28C013A6B
:102B800092B2E284002A7FF42CAFDA6822F080024D
:102B9000DA60DA6842F04002DA6022E7511C216212
:102BA00012785A60EAE750067FF51BAF4A067FF5B8
:102BB00018AFDA68204622F04002DA60202384F859
:102BC0003D30FFF7A3FE0CE71329000884B001A8ED
:102BD00080E80E0004B00020704700234FF43F420D
:102BE000A0F84430A0F8402018467047B0F84030B4
:102BF00023F47C535B045B0CA0F84030002070474A
:102C00000020704784B010B503AC84E80E00BDE826
:102C100010400123A0F84030002304B0A0F8403059
:102C2000A0F84430A0F8503018467047F0B50D7841
:102C3000034630F82520C87822F4EC4222F07002D6
:102C40001204120C03284ED8DFE800F0024A0447B1
:102C500042F40072002048F28004224323F8252029
:102C60000E789C4D33F82620344392B22A402243FA
:102C700023F826200C7B0A78002C40F088804E78C0
:102C8000CC8896B3B3F8506003EB021224F0010431
:102C9000B6B202F58062A4B294530C7833F82420C3
:102CA000560609D533F8242092B22A4042F4004255
:102CB00042F0C00223F82420CA780978012A33F8A8
:102CC0002120854C92B202EA040201D082F0200257
:102CD00042F4004242F08002BCE042F4C062B9E734
:102CE00042F48062B6E70120B5E7B3F8505003EB39
:102CF000021224F00104ADB202F58162A4B2545371
:102D00000A78B3F850600D6903EB0212B6B202F212
:102D10000C425DBB945B24F4F8442404240C9453CB
:102D2000945B6FEA44446FEA5444A4B294530C7821
:102D300033F8242055040DD533F8242022F4E04242
:102D400022F070021204120C42F4404242F080025F
:102D500023F82420097833F8212022F4804222F03D
:102D600070021204120C82F44052B1E73E2D05D8D5
:102D70006C08ED0748BF0134A402D6E76F09EC06E2
:102D8000564C08BF07F1FF3744EA8724CDE733F8F4
:102D90002240A4B22C4044F4014444F0800423F8BF
:102DA00022400A780C89B3F8506003EB021224F039
:102DB0000104B6B202F58062A4B294530A784C8939
:102DC000B3F8506003EB021224F0010402F58162B3
:102DD000A4B2B6B294534A780C78002A3DD133F8A5
:102DE0002420520409D533F8242092B22A4042F418
:102DF000404242F0800223F824200C7833F824204B
:102E000057060DD533F8242022F4E04222F0700258
:102E10001204120C42F4004242F0C00223F82420B3
:102E200048F280040D7833F8252022F4804222F005
:102E300070021204120C82F44052224323F825201F
:102E4000097833F8212022F4E04222F040021204F3
:102E5000120C224323F82120F0BD33F8242056041D
:102E600009D533F8242092B22A4042F4404242F07D
:102E7000800223F824200C7833F8242052060DD544
:102E800033F8242022F4E04222F070021204120CE3
:102E900042F4004242F0C00223F82420CA780C78A1
:102EA000012A33F824200C4D92B202EA050218BF21
:102EB00082F0200242F4004242F0800223F82420F3
:102EC000097833F8212022F4804222F070021204A3
:102ED000120CFDE68F8FFFFFBF8FFFFF0080FFFF0B
:102EE00010B50C7B4B780A78002C3DD113B330F829
:102EF00022305C060DD530F8223023F4E04323F075
:102F000070031B041B0C43F4004343F0C00320F880
:102F100022300A7830F8223023F4E04323F04003D3
:102F20001B041B0C43F4004343F0800320F82230C1
:102F3000002010BD30F822305B040DD530F822306F
:102F400023F4E04323F070031B041B0C43F44043C1
:102F500043F0800320F822300A7830F8223023F43E
:102F6000804323F07003DBE7002B4ED130F8223092
:102F70005C040DD530F8223023F4E04323F07003D5
:102F80001B041B0C43F4404343F0800320F8223021
:102F90000A7830F822305B060DD530F8223023F461
:102FA000E04323F070031B041B0C43F4004343F085
:102FB000C00320F822300A7830F8223023F4E043AE
:102FC00023F070031B041B0C43F4004343F0C003C5
:102FD00020F8223048F280020C7830F8243023F4B4
:102FE000804323F070031B041B0C134320F8243090
:102FF000097830F8213023F4E04323F040031B0428
:103000001B0C134320F8213092E730F822305C0487
:103010000DD530F8223023F4E04323F070031B0475
:103020001B0C43F4404343F0800320F822300A781D
:1030300030F822305B060DD530F8223023F4E0431F
:1030400023F070031B041B0C43F4004343F0C00344
:1030500020F822300A7830F8223023F4E04323F0BD
:1030600070031B041B0C43F4404343F0800320F81F
:10307000223048F280020C7830F8243023F4E04308
:1030800023F040031B041B0C134320F82430097861
:1030900030F8213023F4804323F07003AFE74B78FE
:1030A0000A788BB130F8223023F4E04323F0400358
:1030B0001B041B0C83F0100343F4004343F0800314
:1030C00020F822300020704730F8223023F480436B
:1030D00023F070031B041B0C83F48053ECE70B7B81
:1030E00043BB4B780A783BB330F822305B060DD5F2
:1030F00030F8223023F4E04323F070031B041B0C50
:1031000043F4004343F0C00320F82230CB78012B76
:1031100010D00A7830F8223023F4E04323F0400343
:103120001B041B0C83F0200343F4004343F0800393
:1031300020F822300020704730F822305B040DD593
:1031400030F8223023F4E04323F070031B041B0CFF
:1031500043F4404343F0800320F822300A7830F8EB
:10316000223023F4804323F070031B041B0C83F4F0
:103170004053D9E711B98023A0F84C3000207047A4
:103180000020704700207047B0F8440080B27047BC
:103190000020704700EB4202013302F580625B08B9
:1031A00002EB83039A4200D1704731F8020B22F8F8
:1031B000040BF7E7F8B50C46497805460129277B4B
:1031C00040F05C822269A669964228BF16460FBB72
:1031D000B6B23346E2886169FFF7DCFFB5F85030DC
:1031E000227899B205F2044312010B44D652227898
:1031F00035F8223023F4E04323F040031B041B0C7A
:1032000083F0300343F4004343F0800325F8223079
:103210000020F8BDE3782178022B236A40F0238157
:103220009A4230F8212080F0038122F4E04222F01B
:1032300070021204120C42F4014242F0800220F8A3
:10324000212022789B1B236230F82230617813F012
:10325000400FB3B276D0002954D1B0F8501000F22C
:103260000C4089B201441201002E3AD1885A20F450
:10327000F8400004000C8852885A6FEA40406FEA18
:10328000504080B28852628961692846FFF782FF08
:10329000226A236961699A4289BF921B00232262D4
:1032A00032466078314498BF2362616193B200284E
:1032B00040F05C81B5F85000267880B205F20447F2
:1032C000360138444ABB325A22F4F8421204120C36
:1032D0003252325A6FEA42426FEA524292B232524C
:1032E00024E03E2E05D87008F70748BF0130800261
:1032F000C7E77709F006A44808BF07F1FF3740EA9F
:103300008720BEE70129BED1B0F85010120188B263
:1033100005F20C4101448B52B5E73E2A09D8570803
:10332000D20748BF0137BF02BFB2375222892846B1
:1033300096E05709D206944A08BF07F1FF3742EAE0
:103340008722CBE7002954D1B0F8501000F2044096
:1033500089B201441201002E3AD1885A20F4F84073
:103360000004000C8852885A6FEA40406FEA5040CF
:1033700080B28852228961692846FFF70BFF226AD2
:10338000236961699A4289BF921B002322623246F7
:103390006078314498BF2362616193B2002840F0A5
:1033A0006081B5F85000267880B205F20C473601EE
:1033B00038444ABB325A22F4F8421204120C3252F8
:1033C000325A6FEA42426FEA524292B2325224E0DB
:1033D0003E2E05D87008F70748BF01308002C7E7C6
:1033E0007709F006684808BF07F1FF3740EA8720F1
:1033F000BEE70129BED1B0F85010120188B205F223
:10340000044101448B52B5E73E2A08D85708D20739
:1034100048BF0137BF02BFB23752628987E75709F9
:10342000D206594A08BF07F1FF3742EA8722CCE7A4
:1034300022F4E24222F070021204120C42F4004222
:1034400042F0800220F82120B0F85020217896B276
:1034500000F20442090132449BB28B522289616915
:10346000FFF798FEC3E630F821209B1B22F4E042D0
:1034700022F070021204120C42F4014242F0800267
:1034800020F821202278236230F82230617813F06E
:10349000400FB3B27AD0002952D1B0F850001201D7
:1034A00081B205F20C400844002E38D1815A21F433
:1034B000F8410904090C8152815A6FEA41416FEACF
:1034C000514189B28152628961692846FFF762FEE3
:1034D000226A236961699A4285BF921B2262002396
:1034E00032463144616198BF2362002A3FF47FAEC7
:1034F000607893B2002839D1B5F850602778B0B21F
:103500003E2A05F204464FEA0717064423D850081E
:10351000D20748BF0130800280B2B85306E73E2E82
:1035200005D87108F70748BF01318902C9E7770953
:10353000F106154908BF07F1FF3741EA8721C0E7C7
:103540000129C0D1B0F85010120188B205F20C4127
:1035500001448B52B7E75009D2060B4A08BF00F16D
:10356000FF3042EA802292B2BA53DFE601287FF4AC
:10357000DDAEB5F85020207896B205F20442000185
:1035800032448352D2E600BF0080FFFF002952D1AF
:10359000B0F8501000F2044089B201441201002E2C
:1035A00038D1885A20F4F8400004000C8852885A18
:1035B0006FEA40406FEA504080B2885222896169C8
:1035C0002846FFF7E7FD226A236961699A4285BFB1
:1035D000921B2262002332463144616198BF23620C
:1035E000002A3FF404AE607893B2002839D1B5F8D0
:1035F00050602778B0B23E2A05F20C464FEA071712
:10360000064423D85008D20748BF0130800280B258
:10361000B85302E73E2E05D87008F70748BF0130BF
:103620008002C9E77709F006AD4808BF07F1FF3708
:1036300040EA8720C0E70129C0D1B0F8501012013C
:1036400088B205F2044101448B52B7E75009D20613
:10365000A34A08BF00F1FF3042EA802292B2BA5377
:10366000DBE601287FF4D9AEB5F85020207896B279
:1036700005F20C42000132448352CEE6002F3ED1C7
:10368000A2692369B0F850109A4294BF1346D21A27
:10369000207888BFA2618AB205F20C4198BFA76169
:1036A000000111446BB9435A23F4F8431B041B0C6B
:1036B0004352435A6FEA43436FEA53439BB2435228
:1036C00008E03E2B12D85A08DF0748BF01329202A9
:1036D00092B24252227835F8223023F4804323F00C
:1036E00070031B041B0C83F440538BE55A09DE0660
:1036F0007B4B08BF02F1FF3243EA8223DEE7E37827
:10370000022B7DD1B9B9B0F85020217893B200F2E4
:103710000442206909011A44002843D18B5A23F43A
:10372000F8431B041B0C8B528B5A6FEA43436FEA1E
:1037300053439BB28B5262782378002A54D1B5F858
:10374000501020698AB205F20C411B011144002877
:1037500039D15A5A22F4F8421204120C5A525A5AC7
:103760006FEA42426FEA524292B25A52E369002B28
:10377000B0D044F24001227835F822300B408B4221
:1037800001D0002BA6D135F8223023F4E04323F0FA
:1037900070031B041B0C43F4004343F0C00325F8E3
:1037A000223097E73E2805D84308C00748BF0133B9
:1037B0009B02BEE74609C706494B08BF06F1FF3624
:1037C00043EA8623B5E73E2805D84208C00748BF2C
:1037D00001329202C8E74609C706414A08BF06F10E
:1037E000FF3642EA8622BFE7012ABFD1B5F8502052
:1037F0001B0191B205F20C420A44218A9952B5E7A5
:10380000012B6BD1A26923699A4295BF0023D21A7A
:10381000A361A26198BF1346A9B9B0F850102078EF
:103820008AB205F204410001114433BB425A22F42A
:10383000F8421204120C4252425A6FEA42426FEAB4
:10384000524292B2425261782278002939D1B5F8B9
:103850005000120181B205F20C400844F3B9135A2A
:1038600023F4F8431B041B0C1352135A6FEA43430F
:103870006FEA53439BB213522CE73E2B05D85A08EC
:10388000DE0748BF01329202DBE75E09DF06144A19
:1038900008BF06F1FF3642EA8622D2E73E2B07D860
:1038A0005908DE0748BF0131890289B2115211E778
:1038B0005909DB060A4B08BF01F1FF3143EA8123B6
:1038C000D8E701297FF406AFB5F85010120188B28D
:1038D00005F20C4101449BB25352FBE60120F8BDB6
:1038E0000080FFFF00EB4202F0B502F580625D0848
:1038F000084617462E46023036B9DB0744BF32F879
:10390000253001F81530F0BD37F8044B013EA4B264
:1039100000F8024C240A00F8014CECE7D0F8BC3265
:1039200010B5D0F8B8425BB194F80002FF2807D078
:103930009B6894F8012221469847FF2384F80032BF
:10394000002010BD43230380004870474000002042
:1039500043230380004870478400002043230380F2
:1039600000487047D40000200A23038000487047B5
:10397000C800002038B50546D0F8B84201F04AFF2B
:10398000D5F8B832C4F80C024BB1D5F8BC3204F506
:103990000371DB68D4F804029847002038BD022088
:1039A00038BDF8B5D0F8B862D6B1142303FB0103D3
:1039B000DD698DB12827D0F8C04207FB0142926B28
:1039C000B5FBF2F402FB145434B9DC612246234601
:1039D00001F004FF2046F8BD0020C6F81402F8BD2F
:1039E0000220F8BD2DE9F7434FF000080A7805469C
:1039F00012F060040E46D0F8B8728DF80580ADF86C
:103A0000068028D0202C47D1CC884B78E4B1120610
:103A100011D5D0F8BC223946D2F808901846224673
:103A2000C847F2883946284600F047FC44462046FD
:103A300003B0BDE8F08387F8003287F801422246E0
:103A4000394600F04FFCF1E7D0F8BC2218469568E3
:103A50002246A847EBE74F780A2F0DD00B2F15D041
:103A6000D7B990F89C32032B14D102220DF1060134
:103A700000F023FC3C46DAE790F89C32032B09D196
:103A800001220DF1050100F018FCD0E790F89C32FE
:103A9000032BCCD03146284600F0E8FB0224C6E7D1
:103AA00038B504460025812101F04EFE0121E56272
:103AB000204601F049FEC4F86C518221204601F0F5
:103AC00043FED4F8B83225644BB1D4F8BC325B68FD
:103AD0009847D4F8B80201F0A5FEC4F8B852002007
:103AE00038BD037C2DE9F0410446CBBB4FF4007395
:103AF00002228121012501F017FE4FF40073E562D7
:103B000029460222204601F00FFEC4F86C5101251F
:103B1000082303228221204601F006FE25644FF48B
:103B2000077001F07BFE0646C4F8B80258B30027C0
:103B3000D4F8BC321B68984794F81080C6F8147209
:103B4000C6F81872B8F1000F13D14FF40073D6F80D
:103B500004222946204601F04FFE4046BDE8F08190
:103B6000012540230222812101F0DEFDE562402390
:103B7000C6E74023D6F804222946204601F03CFE41
:103B80003846BDE8F0812846BDE8F08119B1C0F89B
:103B9000BC120020704702207047D0F8B8320020D5
:103BA000C3F80812C3F810227047D0F8B8320020CA
:103BB000C3F804127047D0F8B82210B582B1D2F819
:103BC0001442012374B9C2F81432D2F810328121A0
:103BD0000363D2F808229BB201F000FE204610BD1C
:103BE000022010BD184610BDD0F8B82210B562B141
:103BF000047C44B94FF40073D2F80422012101F08F
:103C0000FBFD002010BD4023F6E7022010BD08B5E3
:103C100080B1D0F8B43213B10023C0F8B43209B186
:103C2000C0F8B0120123027080F89C3201F02EFD22
:103C3000002008BD022008BD19B1C0F8B412002050
:103C400070470220704708B501F060FD002008BDF4
:103C500008B5D0F8B4320BB9022008BD1B689847EC
:103C60000028F9D108BD08B5D0F8B4325B68984790
:103C7000002008BD38B500F52A750446284600F036
:103C8000E1FA012394F8A812C4F89432B4F8AE32E1
:103C9000C4F8983201F01F03012B0ED007D3022B7A
:103CA00010D001F08001204601F05CFD03E02946C0
:103CB000204600F0F5F8002038BD2946204600F0E7
:103CC00013FAF8E72946204600F033FAF3E770B517
:103CD0000546164649BBD0F89432032B1ED1D0F8C6
:103CE0006031D0F8642193420BD99B1A9A42C0F8F4
:103CF00060318CBF9AB292B2314600F002FB0020D4
:103D000070BDD0F8B4321B6923B190F89C22032A0D
:103D100000D19847284600F0FCFAF0E7052BEED1D9
:103D2000C5F8941201F01EFDE9E7D0F8B4329B69A2
:103D30002BB190F89C22032A01D19847DFE702209B
:103D400070BD70B5134604460E46002947D1D0F821
:103D50009422022A3CD1056A426A954213D9AA1AD2
:103D60000262194692B200F0B5FA33461A46194675
:103D7000204601F041FD94F8A0320020012B3AD1F9
:103D800084F8A00270BDC369B3FBF2F502FB1535E0
:103D900065B99A420AD8D0F89822934206D22A46A8
:103DA00000F098FAC4F898522B46DFE7D4F8B43202
:103DB000DB682BB194F89C22032A01D12046984756
:103DC0008021204601F0CEFC204600F0ADFAD2E77B
:103DD00032F00403CFD1802101F0C4FCCBE7D0F84E
:103DE000B4325B6933B190F89C22032A02D1984720
:103DF000002070BD022070BD002270B50446012570
:103E000040261146402301F08FFC33468021C4F840
:103E10005851C4F864610022204601F085FC00215D
:103E2000D4F8B832A561666284F89C52C4F8941242
:103E30006160C4F8A41223B1D4F8B43220465B68A0
:103E40009847002070BD01740020704790F89C32A4
:103E500080F89D32042380F89C320020704790F84F
:103E60009C32042B04BF90F89D3280F89C320020D5
:103E7000704708B590F89C22032A04D1D0F8B432D8
:103E8000DB6903B19847002008BD10B504468021C6
:103E900001F068FC2046BDE81040002101F062BC42
:103EA00037B50B78044603F06003202B0D4612D083
:103EB000402B10D0002B5CD14B78092B58D8DFE871
:103EC00013F0E80004015700FD00570084001300C0
:103ED0005700D100A000D4F8B43229469B68204690
:103EE0009847002003B030BD0023ADF806304B8862
:103EF0001A0A013A062A3BD8DFE802F004202D3ADC
:103F00003A525C00D0F8B0321B680DF10601207CFB
:103F10009847BDF8062052B1EB8843B19A4228BFBA
:103F20001A4601462046ADF8062000F0C6F9EB8897
:103F3000002BD6D1204600F0ECF9D2E7027CD0F875
:103F4000B43232B99B6A0DF10600984702234370E0
:103F5000DFE7DB6AF7E7DBB2052B09D8DFE803F020
:103F6000030C1014181CD0F8B0325B68002BCCD1B5
:103F70002046FFF78AFFB4E7D0F8B0329B68F5E738
:103F8000D0F8B032DB68F1E7D0F8B0321B69EDE76A
:103F9000D0F8B0325B69E9E7D0F8B0329B69E5E769
:103FA000037C002BE4D1D0F8B4320DF106005B6B3A
:103FB0009847AEE7037C002BDAD1D0F8B4320DF18C
:103FC00006001B6B98470723C1E78B88002BCFD1D6
:103FD000CB88002BCCD14D887F2DC9D890F89C324E
:103FE000E9B2032BC4D080F89E1201F0E9FB204611
:103FF00000F08FF91DB1022384F89C3271E7012390
:10400000FAE78978374D02292970B1D890F89C32A7
:10401000022B08D0032B13D0FFF737FF2978204657
:10402000FFF721FE5DE7002984D00323416080F87B
:104030009C322046FFF70CFE02287FF47BAF97E707
:1040400031B90223416080F89C32FFF70CFE71E722
:10405000436899423FF46EAFD9B2FFF704FE297866
:104060006160E6E7CA88012A82D190F89C32002B71
:104070003FF47EAF022B04D9032B7FF479AF011DEF
:1040800003E00146002341F8083F204600F015F9FF
:1040900027E790F89C32013B022B3FF669AFCB88B3
:1040A000022B7FF465AF0123C360D0F8A4320BB1BB
:1040B0000323C360022204F10C01E6E74B88012BC5
:1040C0007FF40FAFC4F8A43234E790F89C32013B80
:1040D000022B3FF64DAF4B88012B7FF402AF00233C
:1040E000F0E700BF0402002038B50B78044603F067
:1040F0006003202B0D4602D0402B00D0B3B994F8BA
:104100009C32013B022B10D82B79022B0DD8D4F80E
:10411000B43229469B6820469847EB881BB910B9F2
:10412000204600F0F6F8002038BD2046FFF7ADFE2F
:10413000F9E738B50A78044602F06002202A0B46F7
:1041400013D0402A11D06AB95D788A88012DD1B286
:104150001FD035D3032D05D190F89C22022A26D0FA
:10416000032A0AD0FFF791FE05E0D4F8B4221946DD
:10417000926820469047002038BD5A882AB94A06DE
:1041800003D0DB880BB901F0EDFA204600F0C1F84E
:10419000F1E790F89C22022A09D0032AE2D15B8839
:1041A000002BE8D14D06F0D001F0EAFAEDE74B061E
:1041B00016D001F0D7FA8021204601F0D3FADAE7D1
:1041C00090F89C32022B0DD0032BCBD1142312F08C
:1041D000800F01F00F0203FB020214D09269EAB9CA
:1041E0002046BFE74906FBD113064FF000034FF00E
:1041F00002024CBF00F1140100F5AA710B602046C9
:1042000000F05BF8B7E7D2F85821002AE8D001F0B7
:104210007F0503FB050505F5AA7504E001F07F05A0
:1042200005FB0335054411F07F0303D12B60022207
:104230002946E4E7204601F0B1FA08B10123F5E789
:104240002860F4E70B7803704B784370CA788B785A
:1042500003EB022343804A790B7903EB022383802B
:10426000CA798B7903EB0223C380704710B50446EB
:10427000802101F077FA2046BDE81040002101F0CE
:1042800071BA30B588B105462B1A15F8014BDBB26F
:10429000002CF9D101335B0013800B7003234B70AA
:1042A0000223013810F8015F05B930BD5A1CCD5406
:1042B000D2B20233DBB28C54F4E71346022210B5BB
:1042C000C0F89422C3610A460362002101F086FA15
:1042D000002010BD08B513460A46002101F07EFA01
:1042E000002008BD1346032210B5C0F89422C0F880
:1042F0005C310A46C0F86031002101F07DFA0020EF
:1043000010BD08B513460A46002101F075FA0020D9
:1043100008BD08B50423C0F8943200231A46194694
:1043200001F05CFA002008BD08B50523C0F89432FE
:1043300000231A46194601F05FFA002008BD00006C
:104340000A4B1A6922F480421A611A6922F4006247
:104350001A615A6922F020025A615A6922F0020257
:104360005A615A6942F008025A617047004400409D
:1043700008B500F001FFFFF7E3FF034B1A68D368AD
:1043800043F02003D36008BD780D0020002110B554
:10439000431E00F12F0203F1080403F8011FA3429A
:1043A000FBD19A42F7D1002100F1340300F13C0225
:1043B00003F8011B9342FBD14023036310BD0000AF
:1043C000094BDA6890060DD51A6891060AD51A6865
:1043D0009206FCD55A68054B5A70054A137803F0CB
:1043E000FD031370704700BF0044004058040020D4
:1043F0005D040020064AC0F30800137843F002036E
:104400001370044B58601A685206FCD5704700BF01
:104410005D0400200044004040F2E933054A117871
:10442000890703D5013B9BB2002BF8D1024B58788A
:10443000704700BF5D0400205804002010B54FF401
:104440001650FFF795FFF020FFF7D4FFFFF7E4FFCA
:1044500004464FF4E130FFF78BFF024B20461C70FF
:1044600010BD00BF5E040020FF2210B5034601F11D
:10447000080013F0010414BF0A700C700131884267
:104480004FEA5303F5D110BD07B56946FFF7ECFFBE
:1044900000211DF80100FFF7ADFF01310829F8D117
:1044A00003B05DF804FB70B500230446082214F83D
:1044B000015B85EA030616F0010F4FEA530318BFAC
:1044C00083F08C0302F1FF3218BFDBB212F0FF025F
:1044D0004FEA5505EDD1221AD2B28A42E6D31846E8
:1044E00070BD0721FFF7DFBF2DE9F84F05460E46E7
:1044F000FFF7A4FFF0285CD0F020FFF7C5FF4FF0D6
:1045000000094FF0FF380127FF20FFF773FFFFF787
:1045100083FF8346FF20FFF76DFFFFF77DFFABF1C1
:10452000FF025342A0F1FF015341484248415FFA64
:1045300089F483424FEAD40A12D1BBF1FF0F3BD07A
:104540002B6B99450FD031DC05EB0A0393F834004F
:1045500004F00703184110F0010004D1C8460CE034
:10456000BBF1FF0F23D1FF2016F80A3004F0070437
:1045700007FA04F41C4306F80A4009F10109FFF7A1
:1045800039FFB9F1400FBFD1C5F83080731E343503
:10459000063613F8012FB34205F8012BF9D1B8F113
:1045A000000FD4BF00200120BDE8F88FC8460020CE
:1045B000E3E70020BDE8F88F4FF0FF30BDE8F88F4B
:1045C00038B505460024FFF7E1FE05EBC401284697
:1045D000FFF78AFF002806DB04F1010401D0062C56
:1045E000F3D1204638BD4FF0FF34FAE738B5044622
:1045F000FFF724FF5520FFF747FF651E073415F826
:10460000010FFFF741FFA542F9D138BD08B50846B3
:10461000FFF7ECFFBDE808404420FFF735BF0B78FB
:104620002DE9F041102B164601D0282B21D1084648
:10463000FFF7DCFFBE20FFF727FF00274FF0010840
:10464000FF20FFF7D7FEFFF7E7FEBCB2E508C5F194
:104650000805EDB2735D04F00704FF2808FA04F4BE
:1046600007F101070CBF1C4323EA0404482F7455CB
:10467000E6D13046BDE8F0812DE9FF410B780646D2
:10468000102B0D4617461ED0282B28D101AAFFF764
:10469000C6FF9DF80C409DF80B304FEA141848EA0D
:1046A000031804F00F030A245C434FFA88F8C4F39C
:1046B00007141FB129463046FFF7A8FF8DF8008088
:1046C0008DF8014010E001AAFFF7A9FF9DF80C400A
:1046D0004FEA540804F00104A3001C44E9E7002356
:1046E0008DF800308DF8013000209DF8003063F324
:1046F00007009DF8013063F30F2004B0BDE8F0819E
:1047000010B586B0FCF7FCF9012300240593039350
:10471000094B01A902A804930294FCF7A1FA38B945
:10472000FCF700FA0198431C5842584106B010BDEE
:10473000FCF7F8F92046F9E700F80008B0F5007F2B
:104740003FBF800000F1006000F5784003683ABF89
:1047500001200B60002070470144B1F5007F0BDDA4
:1047600000207047830003F1006303F578431B6862
:10477000013042F8043B80B28142F3DC01207047F3
:10478000B0F5007F2DE9F04105460F461AD28400AE
:1047900004F1006404F578442368013308D1FCF780
:1047A000AFF97B1C2AD1FCF7BDF90120BDE8F081EF
:1047B000174E4FF4007132460020FFF7CDFF20B9AD
:1047C000FCF7B0F90020BDE8F08146F82570FFF74E
:1047D00097FFFCF795F90F4DDFF83C8005F1784322
:1047E000A3F57843F258294600230220FCF7CEF9BE
:1047F0000028E5D104354545F0D1D0E73A460023FD
:1048000021460220FCF7C2F90028D9D1CBE700BF2E
:104810006004002000F800080000010810B50A4CF0
:1048200001224FF400612046FCF74AFB3C20FCF7D4
:1048300059F8204600224FF40061FCF741FBBDE827
:1048400010403C20FCF74EB8000C014010B501248C
:1048500019212046FFF794FF601C1E2180B2FFF74C
:104860008FFFA01C0534012180B2A4B2FFF788FF9E
:104870001A2CEDD110BD000038B501240D4D28686B
:10488000FBF7C8FF01462046FFF77AFF6868FBF791
:10489000C1FF631C014698B2FFF772FFA01C0534EC
:1048A000297A80B2A4B2FFF76BFF1A2C05F10C0530
:1048B000E5D138BDEC0C002037B50124104D01A91D
:1048C0002046FFF73BFF0198FBF74CFF2860601C78
:1048D00001A980B2FFF732FF0198FBF743FF686040
:1048E000A01C01A980B20534FFF728FFA4B2019BE8
:1048F0001A2C2B7205F10C05E1D103B030BD00BFBD
:10490000EC0C002013B540F2773401A90A20FFF720
:1049100015FF019BA34207D0FFF7F2FEFFF796FFBA
:1049200021460A20FFF72CFFFFF7C6FF02B010BD9B
:10493000282230B595B000210DEB020001F044F8BB
:104940001422102500210DEB020001F03DF82A464B
:10495000002101A801F038F84FF4803301220B93B5
:10496000022412934FF4E0130AA80A920E921194B3
:104970001393FDF75BF900B1FEE70F2305934FF4A6
:1049800080630790214605A8069408930993FDF7D4
:1049900027FB00B1FEE7049001A80195FDF7DEFBBF
:1049A00000B1FEE715B030BD012808B502D00328DC
:1049B00004D008BDBDE80840FFF730BF01224FF426
:1049C00080410848FCF77CFA3C20FBF78BFF054848
:1049D00000224FF48041FCF773FABDE808403C2008
:1049E000FBF780BF000C014038B50024C0F106057C
:1049F000E3B2AB4204F1010400DB38BD0320FFF752
:104A0000D3FF3C20FBF76EFFF2E700002DE9F047F3
:104A100088B0FFF713FDF02832D03C48FFF7D0FDF7
:104A20003B4EC3B233703B4D8BB93B493B4801F021
:104A3000C1F83A48FBF78CFB4FF0FF3382B237499D
:104A40003748FDF709FF374A374B1A60FEE7374A08
:104A50006421324801F07AF83048FBF779FB4FF0D7
:104A6000FF3382B22D492E48FDF7F6FE0023DFF812
:104A70009C80DFF8D0902B702F783378BB4202D81F
:104A800008B0BDE8F08708EBC7042046FFF729FD12
:104A9000E279274B2749904208BF4B460B600792AB
:104AA00062782B780692A27864210592E278824699
:104AB000049222791948039262790292A2790192B2
:104AC00018F8372000921C4A01F040F81348FBF711
:104AD0003FFB124982B24FF0FF331148FDF7BCFE95
:104AE000E3790E48534514BF1449154901F062F8A3
:104AF0000A48FBF72DFB4FF0FF3382B20749084805
:104B0000FDF7AAFE2B7801332B70B5E7640C00206B
:104B1000750D0020A30C002015630008BC0D0020BB
:104B2000A40C002040420F00180100202963000857
:104B30000A630008200E0020486300087E63000816
:104B40008B630008036300082DE9F0474FF00C0861
:104B5000FBF776FC3E4D3F4C2B78064608FB03F3F3
:104B6000E0580F4604EB030AFBF76AFC36A3D3E9CF
:104B70000023FBF707FB02460B4630463946FBF79E
:104B800013FD38B3DFF8DC9099F8003013BB9AF8C6
:104B90000830314A6421314800F0D8FF2F48FBF734
:104BA000D7FA4FF0FF3382B22C492D48FDF754FE5F
:104BB0002A48FBF7CDFA0146284800F0F1FCFFF740
:104BC0002DFE2B7808FB0343187AFFF70DFF012316
:104BD00089F800300C222B7802FB03446068FBF755
:104BE0002FFC19A3D3E90023FBF7CAFA02460B46B0
:104BF000304639464FF00104FBF7F4FC00B9044697
:104C000014F0FF0F1BD0174C2378C3B1164913487B
:104C100000F0D0FF1148FBF79BFA4FF0FF3382B250
:104C20000E490F48FDF718FE0C48FBF791FA0146B4
:104C30000A4800F0B5FCFFF7F1FD00232370BDE842
:104C4000F08700BFAFF300809A9999999999B93F7D
:104C500005020020EC0C0020E4620008BC0D0020DE
:104C6000A40C0020E90C0020F66200082DE9F04FAA
:104C700091B0FBF713FEFFF75BFE102200210CA89A
:104C800000F0A2FE424B4FF400519A69414842F0B5
:104C900010029A619A69002402F010020692069AA4
:104CA0009A69022542F020029A619A69012602F06F
:104CB00020020792079A9A6942F004029A619A695F
:104CC00002F004020892089A9A6942F008029A6176
:104CD0009B69002203F008030993099BFCF7F0F895
:104CE00000224FF498412C48FCF7EAF84FF40053A7
:104CF0000CA928480C930F950D960E94FBF7FEFF18
:104D00004FF498430CA924480C930F950D960E94DC
:104D1000FBF7F4FF4FF4E13320482149846080E839
:104D20000A000C23C460046143618461C461FDF71F
:104D300033FD054600B1FEE700F048FB102229468E
:104D40000CA800F041FE4FF47A434FF08042154C1E
:104D50000A9584E80C00C72320460B95A560E36004
:104D60002561A561FDF7A2FB00B1FEE74FF480537A
:104D70000CA920460C93FDF7CFFB00B1FEE70A908B
:104D80000B900AA92046FDF75BFC68B1FEE700BF67
:104D90000010024000100140000C0140A40C002053
:104DA000003801402C0D00200A25B44C01224FF49C
:104DB00000512046FCF784F83C20FBF793FD0022CD
:104DC0004FF400512046FCF77BF8013D3C20FBF7F7
:104DD00089FD15F0FF05E9D1A948FDF737FAA84884
:104DE000FDF75AFAA749A84800F0E4FEA648FBF7E9
:104DF000AFF94FF0FF3382B2A349A448FDF72CFD71
:104E0000FFF704FEFFF77EFDDFF8B4829B4FA04E54
:104E100098F80030ECB2A34200F222819D499A48F2
:104E200000F0C8FE9848FBF793F99B4F82B24FF011
:104E3000FF3395499548FDF70FFD3D46DFF8848225
:104E4000B8F80030142B39D9914901220846FFF7F0
:104E500013FC924C00B2C0F307232070637040B281
:104E6000DBB28F4A6421019300900023864800F052
:104E70006DFE8548FBF76CF94FF0FF3382B2824933
:104E80008248FDF7E9FC8048FBF762F981B27E4871
:104E900000F086FB0023A8F800300A236078B0FBFE
:104EA000F3F0FBF763FC064694F90000FBF75EFCA9
:104EB00001463046FBF7A6FBFFF746FE3B78012B89
:104EC00018D10023774970483B7000F073FE6E489C
:104ED000FBF73EF94FF0FF3382B26B496B48FDF7A9
:104EE000BBFC6948FBF734F90146674800F058FB02
:104EF000FFF7C2FC2B78022B60D100246A4B6B4A6F
:104F00001B78642160482C7000F020FE5E48FBF79F
:104F10001FF94FF0FF3382B25B495C48FDF79CFC00
:104F20005948FBF715F90146574800F039FBDFF8FF
:104F30009891DFF898B1544EDFF850A199F80830F5
:104F4000D9F8040004930394FBF764FCC0B2029008
:104F500059F80C0B0194FBF75DFCC0B223465A468E
:104F600064210090304600F0F1FD3046FBF7F0F888
:104F70004FF0FF3382B231465046FDF76DFC3046AC
:104F8000FBF7E6F801340146304600F009FB052C3A
:104F9000D4D147493C4800F00DFE3B48FBF7D8F818
:104FA000394982B24FF0FF333848FDF755FC364897
:104FB000FBF7CEF80146344800F0F2FA2B78042BC8
:104FC00019D100232B70384B3A4A1B7864212E48A4
:104FD00000F0BCFD2C48FBF7BBF82B4982B24FF028
:104FE000FF332A48FDF738FC2748FBF7B1F80146A4
:104FF000254800F0D5FA2B78032B7FF421AF00234E
:105000000C262B702C4BDFF8C0901C78664309EB04
:1050100006031A7A039404925868FBF7FBFBC0B2AC
:10502000029059F806000194FBF7F4FBC0B2234646
:105030000090224A6421144800F088FD1248FBF7D2
:1050400087F84FF0FF3382B20F491048FDF704FC98
:105050000D48FBF77DF801460B4800F0A1FAEFE69A
:10506000FB6883F40053FB6016F83430102B50D0EB
:10507000282B2DD0002B5FD10135C9E6001001404F
:105080002C0D002093630008BC0D0020A40C002010
:10509000640C00203E640008E80C0020600C002036
:1050A0005D6400087E640008050200209964000821
:1050B000C264000818650008740D002030650008FF
:1050C000750D0020A00C0020EC0C002042650008AB
:1050D000012206EBC4013046FFF7CEFA204A00B2A7
:1050E000C0F307235370DBB210700193234640B224
:1050F0001C4A009064211C4800F028FD1A48FBF768
:1051000027F84FF0FF3382B217491848FDF7A4FB88
:10511000B2E7012206EBC4013046FFF7ADFA104AB0
:1051200000B2C0F307231070537040B2DBB201939A
:10513000009023460E4ADDE706EBC404A279642101
:10514000059262790848049222790392E2780292E9
:10515000A278019262780092064A00F0F7FCCDE74F
:10516000600C0020C7630008BC0D0020A40C0020C8
:10517000EF6300081764000808B5094A094B0C21C1
:105180001A600022586018469A60DA601A61596104
:105190009A61DA61FDF72EFB00B1FEE708BD00BFA2
:1051A00000440040780D0020FEE700000E4B82B066
:1051B0009A6942F001029A619A6902F00102009232
:1051C000009ADA6942F08052DA61DB69074A03F03B
:1051D00080530193019B536823F0E06343F0007315
:1051E000536002B0704700BF001002400000014051
:1051F000036807B5B3F1804F12D103F50433DA69C0
:105200001C2042F00102DA610022DB69114603F042
:1052100001030193019BFBF789FB1C20FBF7BAFB01
:1052200003B05DF804FB0000102210B5044688B0FE
:105230000DEB0200002100F0C7FB23682A4A9342CD
:1052400029D12A4B04A99A69294842F480429A61DB
:105250009A6902F480420092009A9A6942F004022C
:105260009A619B6903F004030193019B4FF400735F
:1052700004930223059303230793FBF73FFD4FF4A9
:1052800080630493002304A9194805930693FBF750
:1052900035FD08B010BD174A9342FAD1134B04A94B
:1052A000DA69134842F40032DA61DA6902F4003252
:1052B0000292029A9A6942F004029A619B6903F091
:1052C00004030393039B04230493122305930323F2
:1052D0000793FBF713FD002226201146FBF726FB60
:1052E0002620FBF757FBD4E70038014000100240AE
:1052F00000080140004400407047FEE7FEE7FEE77B
:10530000FEE7704770477047FBF7DABA0148FBF7D2
:1053100081BE00BFB8180020044A05481388013335
:1053200013800122034B1A70FCF7E5BFA00C00208C
:105330002C0D0020A20C002008B50348FDF73EFB11
:10534000BDE80840FFF73CB8780D002008B50A4BCF
:105350000246196809B90949196069461868024482
:105360008A4206D900F0FEFA0C2303604FF0FF30AA
:1053700008BD1A6008BD00BF08020020A81D00205B
:105380000F4B1A6842F001021A6059680D4A0A4030
:105390005A601A6822F0847222F480321A601A6805
:1053A00022F480221A605A6822F4FE025A604FF4F6
:1053B0001F029A604FF00062034B9A60704700BF73
:1053C000001002400000FFF800ED00E008B50022E8
:1053D0000E490F48FEF71BFC08B1FFF7E5FE0D492B
:1053E0000B48FEF729FC08B1FFF7DEFE0A49084822
:1053F000FEF7CCFB08B1FFF7D7FE0548FEF723FC0C
:1054000018B1BDE80840FFF7CFBE08BD300100204D
:10541000240E0020080000202001002000207047FA
:105420000020704730B58FB001AC0A6801462046B5
:1054300000F0C8FB4349204600F0D9FB0546204652
:10544000FAF786FE4FF0FF3382B221463E48FDF761
:1054500003FA1DB303223D4B2D1B1A700EAB1D44E6
:1054600015F8305C3A4B303DEDB23A4920461D709C
:1054700000F0BDFB002839D00C23001B5D430EABB0
:1054800003440A2013F82F2C13F82E3C303A303BFB
:1054900000FB0230FBF76AF92F4B58512F49204689
:1054A00000F0A5FB10B10222284B1A702C492046AF
:1054B00000F09DFB50B10EAB001B184410F82C3CC3
:1054C000284A303B13700422204B1A70264920468C
:1054D00000F08DFB10B101221C4B1A7000F06CFA29
:1054E0002248FEF781FB00200FB030BD2049204646
:1054F00000F07DFB98B10C23174A001B03FB052528
:105500000EAB03440A2013F82F2C13F82E3C303A2C
:10551000303B00FB0230FBF729F96860BEE7154914
:10552000204600F064FB0028B8D00C220A4B001B78
:1055300002FB05350EAB184410F82D3C303B2B72A6
:10554000ACE700BF93650008A40C0020E80C002025
:10555000740D002098650008EC0C0020AC65000874
:10556000B465000805020020BD650008240E002077
:105570009E650008A465000810B5064C0022064987
:105580002046FEF70AFB05492046FEF70EFB0020E9
:1055900010BD00BF240E0020D0140020E810002011
:1055A00010B5094C0A46D4F8B832D3F8143243B9CE
:1055B00001462046FEF7F1FA2046BDE81040FEF70E
:1055C000FABA012010BD00BF240E002007B50D4B14
:1055D00002689A4212D103F5DA33DA69142042F4F0
:1055E0000002DA610022DB69114603F40003019333
:1055F000019BFBF79BF91420FBF7CCF903B05DF896
:1056000004FB00BF005C004000F52C71D0F8E802FC
:10561000FEF730BB282303FB0103D0F8E802D3F8E0
:105620007C21FEF754BB282303FB0103D0F8E802DA
:10563000DA6BFEF786BBD0F8E802FEF71ABC836887
:1056400010B5022B044601D0FFF7AEFDD4F8E802F6
:105650000121FEF7F8FBD4F8E802BDE81040FEF7A0
:10566000CBBB000010B50446D0F8E802FEF7EEFB15
:10567000A36923B1024A136943F00603136110BD05
:1056800000ED00E0D0F8E802FEF7E9BB02230822B3
:1056900010B51C4904461C4880E80E000023C0F8E1
:1056A000E842C4F8C0028361C3610362FBF70DFCEA
:1056B00008B1FFF779FD002218231146D4F8C00283
:1056C000FCF799FA582300228021D4F8C002FCF795
:1056D00092FAC02300228121D4F8C002FCF78BFA91
:1056E0004FF4887300220121D4F8C002FCF783FA3A
:1056F0004FF4807300228221D4F8C002FCF77BFAB9
:10570000002010BD005C0040B818002008B5D0F89B
:10571000C002FBF752FC03289ABF024B185C022020
:1057200008BD00BFC665000810B51C46D0F8C00211
:1057300013462246FCF764F903289ABF014B185C14
:10574000022010BDC665000808B5D0F8C002FCF7FD
:105750008AF903289ABF024B185C022008BD00BFDB
:10576000C665000808B5D0F8C002FCF7DFF90328C9
:105770009ABF024B185C022008BD00BFC665000836
:1057800008B5D0F8C002FCF705FA03289ABF024B0F
:10579000185C022008BD00BFC6650008282211F071
:1057A000800FD0F8C0021BBF01F07F0303FB022172
:1057B00002FB0101091814BF887891F86A0170474B
:1057C00008B5D0F8C002FBF711FC03289ABF024BC2
:1057D000185C022008BD00BFC665000808B5D0F8F7
:1057E000C002FCF789F903289ABF024B185C02201B
:1057F00008BD00BFC665000808B5D0F8C002FCF7B8
:105800005AF903289ABF024B185C022008BD00BF5A
:10581000C6650008D0F8C002FCF766B900487047BA
:105820000C02002070477047122301480B8070471C
:105830004C010020042301480B80704760010020C8
:10584000002330B51D46DCB2A24200D830BD040FA3
:10585000092C94BF3034373401F8134001EB430472
:10586000000165700133EEE71A2310B50B80094B78
:10587000186808331B68C0180AD0074B08221C6838
:105880000649FFF7DDFF042205492046FFF7D8FF50
:10589000044810BDE8F7FF1FECF7FF1F660100206A
:1058A000760100206401002010B5044C0A4604482B
:1058B0002146FEF7E6FC204610BD00BFA41B0020D9
:1058C000E365000810B5044C0A4604482146FEF77B
:1058D000D8FC204610BD00BFA41B0020F6650008C0
:1058E00010B5044C0A4604482146FEF7CAFC20467F
:1058F00010BD00BFA41B0020CA65000810B5044CF1
:105900000A4604482146FEF7BCFC204610BD00BFF5
:10591000A41B0020D5650008002103E00B4B5B5859
:10592000435004310A480B4B42189A42F6D30A4AB4
:1059300002E0002342F8043B084B9A42F9D3FFF7F8
:105940001FFD00F015F8FFF791F970474866000851
:1059500000000020E4010020E8010020A81D002034
:10596000FEE70000014B1868704700BF800100206F
:1059700070B500250C4E0D4CA41BA410A54209D1F6
:1059800000F09CFC00250A4E0A4CA41BA410A54262
:1059900005D170BD56F8253098470135EEE756F829
:1059A000253098470135F2E7406600084066000858
:1059B0004066000844660008024B0146186800F083
:1059C0000BB800BF8001002003460244934200D17F
:1059D000704703F8011BF9E738B50546002943D0A5
:1059E00051F8043C0C1F002BB8BFE41800F01AF962
:1059F0001E4A1368104633B9636014602846BDE838
:105A0000384000F010B9A3420BD9216862189342C4
:105A100001BF1A685B685218226063600460EDE79A
:105A200013465A680AB1A242FAD919685818A04216
:105A30000BD120680144581882421960DED11068E9
:105A40005268014419605A60D8E702D90C232B60D0
:105A5000D4E7206821188A4201BF116852680918EA
:105A6000216062605C60C9E738BD00BF2C04002083
:105A700070B5CD1C25F0030508350C2D38BF0C255D
:105A8000002D064601DBA94203D90C233360002018
:105A900070BD00F0C7F8234A1468214691B9224C22
:105AA00023681BB9304600F041F820602946304693
:105AB00000F03CF8431C26D10C233046336000F044
:105AC000B2F8E4E70B685B1B1AD40B2B0FD90B6001
:105AD000CC18CD50304600F0A6F804F10B00231D81
:105AE00020F00700C31A1BD05A42E25070BD8C420E
:105AF0000BBF63684B681360636018BF0C46E9E72F
:105B00000C464968CAE7C41C24F00304A04205D02F
:105B1000211A304600F00AF80130CDD02560D9E7CF
:105B200070BD00BF2C0400203004002038B50023D5
:105B3000054C054608462360FFF708FC431C02D1CC
:105B4000236803B12B6038BDA41D00200CB430B510
:105B5000174B0C1E9DB01D6808DA8B234FF0FF30E9
:105B60002B601DB0BDE8304002B070474FF40273A7
:105B7000ADF814300CBF234604F1FF3304930793B0
:105B80004FF6FF7302900690ADF81630209A21ABC5
:105B900002A92846019300F0A3F8431CBCBF8B2345
:105BA0002B60002CDDD00022029B1A70D9E700BFC9
:105BB00080010020034611F8012B03F8012B002A75
:105BC000F9D1704770B5044602B970BD234611F88B
:105BD000015B561E03F8015B1DB91444A34203D1B7
:105BE00070BD1C463246EFE703F8015BF6E7F0B5FF
:105BF000037833B1034618465E1C1B7833B9184648
:105C0000F0BD0B78002B18BF0020F0BD4D1E441EC8
:105C100015F8012F002AF3D014F8017F334697427C
:105C2000F6D0E8E7704770472DE9F0478E68824666
:105C30009E420C469146984635D88A8912F4906F58
:105C400031D00223256809696F1A656905EB45059E
:105C500095FBF3F508F101033B449D4238BF1D4617
:105C6000530531D52946FFF703FF064650B90C23EB
:105C7000CAF80030A3894FF0FF3043F04003A381FE
:105C8000BDE8F0873A46216900F0C4FAA38923F4FD
:105C9000906343F08003A38126613E44266046461C
:105CA0006561ED1BA560464528BF4646494632461C
:105CB000206800F0BAFAA36800209B1BA360236849
:105CC0001E442660BDE8F0872A4600F0C8FA064662
:105CD0000028E1D121695046FFF77EFEC7E70000AA
:105CE0002DE9F04F9DB003938B8980461C060D462D
:105CF00016460FD50B696BB94021FFF7B9FE286036
:105D0000286128B90C23C8F800304FF0FF30C4E0F8
:105D100040236B610023099320238DF82930302321
:105D20004FF0010B8DF82A3037463C4614F8013B02
:105D3000002B3CD1B7EB060A0BD05346324629461E
:105D40004046FFF771FF013000F0A280099B5344E9
:105D500009933B78002B00F09B8000234FF0FF322B
:105D600004930793059206938DF853301A930522F6
:105D70002178504800F040FA671C049BD8B9D90636
:105D800044BF20228DF853201A0744BF2B228DF8E0
:105D9000532022782A2A16D000210A20079A274663
:105DA0003B780134303B092B50D9C9B111E0252B88
:105DB000C0D02746B9E73F4A3C46801A0BFA00F0AC
:105DC00018430490D3E7039A111D12680391002A27
:105DD00001DB079204E0524243F00203079204936E
:105DE0003B782E2B0DD17B78791C2A2B32D1039B4B
:105DF00002371A1D1B680392002BB8BF4FF0FF3308
:105E000005932D4C03223978204600F0F5F938B17E
:105E10004023001B03FA00F0049B01370343049363
:105E20003978062225487E1C8DF8281000F0E4F908
:105E3000002835D0224BFBB9039B073323F007031F
:105E400008330393099B4B4409936DE700FB02322F
:105E50000121A4E700230A24184605930F463A7847
:105E60000131303A092A03D9002BCAD00590C8E77E
:105E700004FB00200123F1E703AB00932A46114BFA
:105E800004A94046AFF30080B0F1FF3F8146D9D16D
:105E9000AB895B063FF539AF09981DB0BDE8F08FBF
:105EA00003AB00932A46074B04A9404600F084F850
:105EB000EAE700BF0C6600081266000816660008D4
:105EC00000000000295C00082DE9F04791461F46BC
:105ED0008A680B6906469342B8BF1346C9F800307A
:105EE00091F843200C46DDF8208012B10133C9F847
:105EF00000302368990642BFD9F800300233C9F850
:105F00000030256815F0060507D104F1190AE36889
:105F1000D9F800209B1A9D422ADB94F8433022686E
:105F2000003318BF012392062FD404F143023946EF
:105F30003046C047013022D02368E56803F00603ED
:105F4000042B18BF0025D9F800204FF0000908BF26
:105F5000AD1AA368226908BF25EAE5759342C4BF5C
:105F60009B1AED181A344D451BD10020BDE8F0876F
:105F70000123524639463046C047013003D14FF025
:105F8000FF30BDE8F0870135C1E73020E11881F826
:105F900043005A1C94F845102244023382F84310FF
:105FA000C3E70123224639463046C0470130E6D0D8
:105FB00009F10109D7E700002DE9F04317460A7EF1
:105FC00085B06E2A984606460C460C9B01F1430E9E
:105FD00000F0BC801AD8632A2ED00AD8002A00F01C
:105FE000C880582A00F08A8004F1420584F84220D3
:105FF0002AE0642A01D0692AF6D121681A6811F0D2
:10600000800F23D0111D1960136827E0732A00F058
:10601000B48008D86F2A2AD0702AE5D10A6842F0E5
:1060200020020A6003E0752A21D0782ADCD1782288
:106030006F4984F8452064E01A6801F14205111D9A
:106040001960136884F842300123A3E011F0400F77
:1060500002F104011960D7D0B2F90030002B03DA45
:106060002D225B4284F8432062490A2217E020680F
:10607000196810F0800F03D0081D18600B6806E047
:1060800010F0400F01F104001860F7D00B886F2A60
:1060900014BF0A2208225749002084F8430065688B
:1060A000002DA560C0F29C80206820F004002060D4
:1060B000002B3FD1002D40F095807546082A0BD16A
:1060C0002368DA0708D5236962689A42DEBF302365
:1060D00005F8013C05F1FF35AEEB05032361CDF872
:1060E00000803B4603AA21463046FFF7EDFE013013
:1060F00055D14FF0FF3005B0BDE8F08381F8452061
:106100003C492268186812F0800F00F104051D60F8
:1061100001D0036802E05506FBD50388D00744BFD1
:1061200042F0200222601BB9226822F02002226085
:106130001022B1E77546B3FBF2F002FB1033CB5CE3
:1061400005F8013D03460028F5D1B7E708681A684D
:1061500010F0800F496904D0101D18601368196091
:1061600007E010F0400F02F1040018601368F6D049
:106170001980002375462361B1E71A68111D196063
:10618000156800216268284600F036F808B1401B07
:10619000606063682361002384F843309FE72369CC
:1061A0002A4639463046C0470130A2D023689B07B3
:1061B00007D5002504F11909E368039A9B1A9D424B
:1061C00005DBE068039B9842B8BF184693E70123BC
:1061D0004A4639463046C04701308AD00135EBE7A0
:1061E000002BA7D10B7804F1420584F8423065E713
:1061F0002E6600081D66000810B5C9B20244904220
:10620000034601D1002010BD1C7801308C42F6D12C
:10621000184610BD10B5431E0A44914200D110BD6E
:1062200011F8014B03F8014FF7E7884210B501EB75
:10623000020303D8421E99420CD110BD9842F9D2F4
:106240008118D21AD34200D110BD13F8014D01F8C4
:10625000014DF7E711F8014B02F8014FEBE7F8B5F4
:10626000074614460E4621B91146BDE8F840FFF72F
:10627000FFBB22B9FFF7B0FB25462846F8BD00F06A
:1062800014F884420FD921463846FFF7F1FB054642
:106290000028F2D031462246FFF7BCFF314638468F
:1062A000FFF79AFBE9E73546E7E751F8040C0028C9
:1062B000A0F10400BCBF0B58C0187047F8B500BF70
:1062C000F8BC08BC9E467047F8B500BFF8BC08BCD7
:0462D0009E4670472F
:1062D40002030405060708090A0B0C0D0E0F101023
:1062E40053657420706F77657220746F2025640A7B
:1062F4000D00506F776572206F66662E0A0D00439D
:106304005243204F4B00435243204552524F522197
:10631400004572726F7220686173206861707065E5
:106324006E65642100666F756E6420256420646563
:106334007669636573206F6E20312D7769726520ED
:10634400627573000A0D64657669636520256420AF
:1063540028534E3A20253032582F253032582530D4
:1063640032582530325825303258253032582530AD
:1063740032582F2530325829200043524366616930
:106384006C65646B0A0D004352436F6B0A0D004B3E
:1063940065726E656C20737461727465642E2E2E42
:1063A4000A0D6765745F524F4D69642066756E63AC
:1063B40074696F6E2065786563757465642E2E2E1E
:1063C4000A0D0044533138423230204E5F25327575
:1063D400202C2054656D70657261747572653A2065
:1063E4002533752E253275430A0D00445331385335
:1063F4003230204E5F253275202C2054656D706537
:106404007261747572653A202533752E2532754391
:106414000A0D00554E4B4E4F574E2046616D696C28
:10642400793A25782028534E3A20257825782578FE
:106434002578257825780A0D29006765745F524F01
:106444004D69642066756E6374696F6E20636F6D49
:10645400706C6574652E0A0D004453313842323035
:10646400204E5F253275202C2054656D703A20250E
:1064740033752E253275430A0D0053657474696EA5
:1064840067732073746F72656420746F2045455080
:1064940020210A0D0048797374657265736973204D
:1064A4004545502076616C7565733A0A0D70726FBC
:1064B40066696C655F6E756D3A25750A0D000A0D87
:1064C4002D2D3D3D3D3D2D2D0A0D4C7574736B2CCA
:1064D40055412C2032303139204275696C643A3090
:1064E400353131313920286279207D7B6154613620
:1064F4002C20456D61696C3A647261676F736861E1
:106504003230303040676D782E6E6574290A0D0A7A
:106514000D0A0D0050726F66696C65206368616EC8
:1065240067656420746F2025750A0D0076616C75AB
:106534006573206368616E67656420210A0D68795C
:1065440073745B25755D5F6D696E3A2532752C2019
:10655400687973745B25755D5F6D61783A25327572
:106564002C20687973745B25755D5F706F77657235
:106574003A2531750A0D00000000000000000001FA
:10658400020304060708090000000001020304686E
:10659400797374005F6D696E3A005F6D61783A00DB
:1065A4005F706F7765723A006765745F6366670052
:1065B40070726F66696C653A00736176655F6366D5
:1065C40067000002010243444320436F6E6669671B
:1065D4000043444320496E746572666163650053E9
:1065E400544D6963726F656C656374726F6E696331
:1065F400730053544D3332205669727475616C20A4
:10660400436F6D506F727400232D302B2000686C23
:106614004C006566674546470030313233343536C1
:1066240037383941424344454600303132333435FA
:0C66340036373839616263646566000027
:046640003501000818
:046644001101000838
:106648000100000010000000E33A0008A13A000829
:10665800E5390008000000001D390008A3390008CA
:10666800753900080000000000000000000000006C
:1066780051390008453900085D39000869390008B2
:1066880009024300020100C03209040000010202AD
:106698000100052400100105240100010424020260
:1066A80005240600010705820308001009040100FB
:1066B800020A0000000705010240000007058102E8
:1066C8004000000009024300020100C03209040032
:1066D8000001020201000524001001052401000147
:1066E800042402020524060001070582030800109D
:1066F80009040100020A0000000705010200020067
:1067080007058102000200000A060002000000409E
:106718000100000009074300020104C03209040017
:1067280000010202010005240010010524010001F6
:10673800042402020524060001070582030800104C
:1067480009040100020A00000007050102400000D8
:1067580007058102400000002C01000000A24A0445
:10676800795500081D5400082154000825540008D4
:106778002958000835580008A9580008C5580008C5
:1067880069580008E1580008FD5800081201000285
:106798000202004083044057000201020302000085
:1067A800040309041A0300000000000000000000B0
:1067B80000000000000000000000000000000000D1
:1067C800840100200000000000000000000000001C
:1067D80000000000000000000000000000000000B1
:1067E80000000000000000000000000000000000A1
:1067F8000000000000000000000000000000000091
:106808000000000000000000000000000000000080
:106818000000000000000000000000000000000070
:04682800000000006C
:04000005080059197D
:00000001FF
